:020000040800F2
:100000008805002089010008E7120008DF120008B7
:10001000E3120008790200089515000800000000AE
:1000200000000000000000000000000015130008A0
:100030007D02000800000000E91200081713000804
:100040009F0100089F0100089F0100089F01000810
:100050009F0100089F010008810200089F0100081D
:100060009F0100089F0100089F0100089F010008F0
:100070009F0100089F0100089F0100089F010008E0
:100080009F0100089F0100089F0100089F010008D0
:100090009F0100089F0100089F0100089F010008C0
:1000A0009F0100089F0100089F0100089F010008B0
:1000B0009F0100089F0100089F0100089F010008A0
:1000C0009F0100089F0100089F0100089F01000890
:1000D0009F010008711500089F0100089F0100089A
:1000E0009F0100089F0100089F01000800F002F82E
:1000F00000F03AF80AA090E8000C82448344AAF188
:100100000107DA4501D100F02FF8AFF2090EBAE885
:100110000F0013F0010F18BFFB1A43F0010318473B
:100120005018000070180000103A24BF78C878C139
:10013000FAD8520724BF30C830C144BF04680C60ED
:10014000704700000023002400250026103A28BF35
:1001500078C1FBD8520728BF30C148BF0B60704739
:100160001FB51FBD10B510BD00F054F81146FFF7C4
:10017000F7FF01F05FFB00F072F803B4FFF7F2FF46
:1001800003BC01F025FA000008480047FEE7FEE73F
:10019000FEE7FEE7FEE7FEE7FEE7FEE7FEE7FEE737
:1001A00003480449024A044B70470000ED00000870
:1001B00088010020880500208801002070474FF04A
:1001C000000200B5134694469646203922BFA0E8A7
:1001D0000C50A0E80C50B1F12001BFF4F7AF0907B3
:1001E00028BFA0E80C5048BF0CC05DF804EB8900A4
:1001F00028BF40F8042B08BF704748BF20F8022BE7
:1002000011F0804F18BF00F8012B704770477047FE
:1002100070477047754600F02BF8AE4605006946FA
:10022000534620F00700854618B020B5FFF7B8FF09
:10023000BDE820404FF000064FF000074FF00008E7
:100240004FF0000B21F00701AC46ACE8C009ACE868
:10025000C009ACE8C009ACE8C0098D46704710B5CC
:100260000446AFF300802046BDE81040FFF785BF8D
:10027000004870472401002000BFFEE770470000DF
:1002800010B5012000F086F801200149086010BD7A
:100290001404014070B50446002594F8210002289A
:1002A00003D00420A063012548E02068006820F006
:1002B0000E00216808602068006820F001002168B5
:1002C00008601F492068884201D1012026E01C49AE
:1002D00014312068884201D110201FE018492831CC
:1002E0002068884201D1801518E015493C3120680A
:1002F000884201D1801411E01149503120688842B0
:1003000002D14FF4803009E00D4964312068884201
:1003100002D14FF4801001E04FF080700849083995
:100320004860012084F8210000BF002084F82000EC
:1003300000BF606B10B12046616B8847284670BDD6
:100340000800024010B50446142001F049F9012CC0
:100350001AD101210D4800F0BBF9012813D1002268
:10036000C1030B4800F0C6F900226103084800F001
:10037000C1F90022E102064800F0BCF90022610246
:10038000034800F0B7F900BF00BF10BD00080140EE
:10039000000C014010B5044604480068204020B11C
:1003A000024804602046FFF7CDFF10BD1404014051
:1003B0002DE9F8470346002294466EE14FF001080C
:1003C00008FA02F4D1F8008008EA0400A0427DD1C6
:1003D000DFF8DCA2D1F80480A8EB0A09D0453AD0B6
:1003E00014DCB8F1030F50D009DCB8F1000F31D0A4
:1003F000B8F1010F1CD0B8F1020F49D120E0B8F1DB
:10040000110F18D0B8F1120F42D11EE0B9F5881FB4
:1004100025D006DCB9F5803F20D0B9F5801F37D153
:100420001AE0B9F5001F18D0B9F5041F30D117E054
:10043000D1F80CC02DE0D1F80C8008F1040C28E0B4
:10044000D1F80C8008F1080C23E0D1F80C8008F1F9
:100450000C0C1EE000BF00BF00BF00BF00BF00BF0C
:10046000D1F80880B8F1000F02D14FF0040C0BE076
:10047000D1F80880B8F1010F03D14FF0080C1C61CE
:1004800002E04FF0080C5C6103E04FF0000C00E06C
:1004900000BF00BFFF2801D8984601E003F104081F
:1004A0004646FF2802D84FEA820803E0A2F1080876
:1004B0004FEA88084746D6F800804FF00F0909FA3E
:1004C00007F928EA09080CFA07F900E088E048EA89
:1004D0000908C6F80080D1F8048008F08058B8F107
:1004E000805F7DD100BFDFF8CC81D8F8188048F05C
:1004F0000108DFF8C091C9F81880C846D8F81880FC
:1005000008F00108CDF8008000BF00BF4FEAB938FD
:100510004FEA920958F829504FEA82784FEA187941
:100520004FF00F0808FA09F825EA0805DFF8888176
:10053000434502D14FF0000816E0DFF880814345C3
:1005400002D14FF001080FE0DFF87481434502D17A
:100550004FF0020808E0DFF86C81434502D14FF00C
:10056000030801E04FF004084FEA82794FEA197955
:1005700008FA09F848EA0505DFF84C814FEA9209C4
:1005800048F82950D1F8048008F48038B8F5803F45
:100590000AD1DFF83881D8F8008048EA0008DFF88F
:1005A0002C91C9F8008009E0DFF82081D8F800809C
:1005B00028EA0008DFF81491C9F80080D1F8048017
:1005C00008F40038B8F5003F10D1DFF8008108F1D9
:1005D0000408D8F8008048EA0008DFF8F09000E04E
:1005E0005AE009F10409C9F800800DE0DFF8DC8069
:1005F00008F10408D8F8008028EA0008DFF8CC9059
:1006000009F10409C9F80080D1F8048008F48018C1
:10061000B8F5801F0ED1DFF8B48008F10808D8F8CB
:10062000008048EA0008DFF8A49009F10809C9F839
:1006300000800DE0DFF8948008F10808D8F8008009
:1006400028EA0008DFF8849009F10809C9F8008059
:10065000D1F8048008F40018B8F5001F0ED1DFF8B7
:100660006C8008F10C08D8F8008048EA0008DFF830
:100670005C9009F10C09C9F800800DE0DFF84C80AE
:1006800008F10C08D8F8008028EA0008DFF83C9050
:1006900009F10C09C9F80080521CD1F8008028FA31
:1006A00002F8B8F1000F7FF489AEBDE8F8870000CA
:1006B000000011100010024000080140000C014031
:1006C00000100140001401400800014000040140F6
:1006D000024693680B400BB1012000E000207047F8
:1006E00010B5C26821EA020302EA010443EA0443A6
:1006F000036110BD0AB1016101E00B0403617047A1
:10070000014800687047000010000020034800689E
:100710000349097808440149086070471000002027
:100720001800002010B50848006840F01000064985
:100730000860052000F080F80F2000F007F800F0B6
:100740002BF8002010BD00000020024070B50446C8
:100750000E4800784FF47A71B1FBF0F00C4909684B
:10076000B1FBF0F5284600F0E3FB08B1012070BDB5
:10077000102C07D200222146501E00F01EF805481A
:10078000046001E00120F2E70020F0E718000020FB
:100790000000002014000020704701460846002891
:1007A00009DB00F01F0301229A4043099B0003F17B
:1007B000E023C3F8002100BF70472DE9F05F8046B9
:1007C0000D461646002700F0E7FE074639462A4642
:1007D000334601F00700C0F1070ABAF1040F02D94D
:1007E0004FF0040A01E0C0F1070AD14600F1040A03
:1007F000BAF1070F02D24FF0000A01E0A0F1030A9C
:10080000D4464FF0010A0AFA09FAAAF1010A0AEAE3
:10081000020A0AFA0CFA4FF0010B0BFA0CFBABF1CF
:10082000010B0BEA030B4AEA0B042146404600F099
:10083000BBFEBDE8F09F000000BF00F00702064BC2
:1008400019684FF6FF031940044B0B4343EA02219A
:10085000014B196000BF70470CED00E00000FA0585
:1008600070B504460D460CB9012070BD5A480068A9
:1008700000F00700A8420ED25748006820F0070099
:100880002843554908600846006800F00700A84260
:1008900001D00120E9E7207800F0020002281DD1F4
:1008A000207800F00400042805D14C48406840F44A
:1008B000E0604A494860207800F00800082805D127
:1008C0004648406840F460504449486043484068A6
:1008D00020F0F000A168084340494860207800F00B
:1008E000010078B36068012806D13C48006800F434
:1008F000003090B90120B8E76068022806D1374877
:10090000006800F0007040B90120AEE7334800688D
:1009100000F0020008B90120A7E73048406820F045
:100920000300616808432D494860FFF7E9FE064669
:1009300009E0FFF7E5FE801B41F28831884202D9C9
:10094000032092E707E02548406800F00C0061684A
:10095000B0EB810FEDD12048006800F00700A842FD
:100960000ED91D48006820F0070028431A49086086
:100970000846006800F00700A84201D0012074E793
:10098000207800F00400042807D11448406820F4BF
:10099000E060E168084311494860207800F00800F1
:1009A000082808D10D48406820F46050216940EAC9
:1009B000C1000A49486000F03FF808494968C1F39E
:1009C0000311074A515CC8400649086006480068A0
:1009D000FFF7BCFE002048E7002002400010024064
:1009E0005819000800000020140000200148006889
:1009F000704700000000002000B5FFF7F7FF044932
:100A00004968C1F30221034A515CC84000BD00009F
:100A1000001002406819000800B5FFF7E7FF04491D
:100A20004968C1F3C221034A515CC84000BD0000BF
:100A30000010024068190008F0B585B00FF26C0C88
:100A40009CE8E01001A8A0E8E0101CA52D68009526
:100A500000210022002300240020194D696801F0C4
:100A60000C05F5B1042D02D0082D19D101E015486F
:100A700019E001ADC1F38346AC5D01F4803555B199
:100A80000F4D6D68C5F340451DF805200D4D6543BC
:100A9000B5FBF2F302E00C4D04FB05F3184602E04F
:100AA00000BF084800BF00BF05B0F0BD0203040549
:100AB000060708090A0B0C0D0E0F101001020000AA
:100AC0000010024000127A0000093D00F8B504460B
:100AD0000CB90120F8BD207800F00100002878D082
:100AE000F848406800F00C0004280CD0F548406835
:100AF00000F00C00082811D1F248406800F4803062
:100B0000B0F5803F0AD1EF48006800F400300028BB
:100B10005FD0606800285CD10120DBE700BF60681F
:100B2000B0F5803F06D1E748006840F48030E549E1
:100B3000086028E0606858B9E248006820F4803016
:100B4000E04908600846006820F4802008601AE048
:100B50006068B0F5A02F0BD1DA48006840F480201F
:100B6000D84908600846006840F4803008600AE010
:100B7000D448006820F48030D249086008460068F4
:100B800020F48020086000BF606888B1FFF7B8FDDE
:100B9000054606E0FFF7B4FD401B642801D9032099
:100BA00098E7C848006800F400300028F2D010E050
:100BB000FFF7A6FD054606E0FFF7A2FD401B6428EF
:100BC00001D9032086E7BF48006800F40030002800
:100BD000F2D1207800F00200022857D1B9484068CD
:100BE00000F00C0050B1B748406800F00C00082835
:100BF00018D1B448406800F4803098B9B148006812
:100C000000F0020020B12069012801D0012061E735
:100C1000AC48006820F0F800616940EAC100A949C9
:100C2000086033E02069E8B10120A7490860FFF7B8
:100C300067FD054606E0FFF763FD401B022801D96A
:100C4000032047E79F48006800F002000028F2D028
:100C50009C48006820F0F800616940EAC1009949A9
:100C6000086013E0002098490860FFF749FD054639
:100C700006E0FFF745FD401B022801D9032029E7C4
:100C80009048006800F002000028F2D1207800F0BF
:100C9000080008282DD1A069B8B101208B4908604F
:100CA000FFF72EFD054606E0FFF72AFD401B022850
:100CB00001D903200EE78348406A00F002000028B3
:100CC000F2D0012000F012FB13E000207F49086001
:100CD000FFF716FD054606E0FFF712FD401B022850
:100CE00001D90320F6E67748406A00F002000028A8
:100CF000F2D1207800F00400042873D10027714855
:100D0000C06900F0805070B900BF6E48C06940F003
:100D100080506C49C8610846C06900F0805000905E
:100D200000BF00BF01276A48006800F48070B0B9B6
:100D30006748006840F4807065490860FFF7E0FC90
:100D4000054606E0FFF7DCFC401B642801D90320C0
:100D5000C0E65F48006800F480700028F2D000BF51
:100D6000E068012806D15748006A40F00100554963
:100D7000086227E0E06858B95248006A20F0010094
:100D8000504908620846006A20F00400086219E031
:100D9000E06805280BD14B48006A40F0040049493F
:100DA00008620846006A40F0010008620AE045480F
:100DB000006A20F00100434908620846006A20F0FA
:100DC0000400086200BFE068A0B1FFF799FC054687
:100DD00009E0FFF795FC401B41F28831884202D9B7
:100DE000032077E622E03748006A00F0020000287E
:100DF000EFD012E0FFF784FC054608E0FFF780FC27
:100E0000401B41F28831884201D9032062E62D4817
:100E1000006A00F002000028F0D1012F05D1294816
:100E2000C06920F080502749C86100BFE069C8B39D
:100E30002448406800F00C00082860D0E0690228CF
:100E400048D1002020490866FFF75AFC054606E015
:100E5000FFF756FC401B022801D903203AE6194847
:100E6000006800F000700028F2D1206AB0F5803FE1
:100E700007D11448406820F40030A16808431149A4
:100E80004860D4E9080108430E49496821F4741107
:100E900008430C49486001200B490866FFF730FC05
:100EA000054607E03DE0FFF72BFC401B022801D977
:100EB00003200FE60348006800F000700028F2D01D
:100EC0002FE0000000100240000042428004424235
:100ED00000700040002014490866FFF711FC054629
:100EE00006E0FFF70DFC401B022801D90320F1E5C5
:100EF0000E48006800F000700028F2D111E0E069AF
:100F0000012800D1E6E50948466806F48031206AE8
:100F1000814204D106F47011606A814201D001203F
:100F2000D8E50020D6E50000000042420010024053
:100F300070B504462546681EB0F1807F01D30120BC
:100F40000FE0681E4FF0E02148610F214FF0FF30A5
:100F500000F02AFB00204FF0E021886107200861A3
:100F6000002070BD704700002DE9F047044620685E
:100F700005682068C668206847694FF00008C146C8
:100F800005F00F08B8F1000F0AD105F0200038B1C4
:100F900006F0200020B1204600F0EBF9BDE8F08714
:100FA000B8F1000F71D007F0010018B906F4907085
:100FB00000286AD005F0010030B106F4807018B145
:100FC000E06B40F00100E06305F0040030B107F091
:100FD000010018B1E06B40F00200E06305F0020090
:100FE00030B107F0010018B1E06B40F00400E0639D
:100FF00005F0080048B106F0200010B907F0010024
:1010000018B1E06B40F00800E063E06B68B305F0F6
:10101000200028B106F0200010B1204600F0A9F908
:1010200020684069C0F38019E06B00F0080010B937
:10103000B9F1000F22D0204600F07BF9206840690A
:1010400000F04000B0B12068406920F04000216805
:101050004861606B50B11848616B4863606BFFF783
:1010600019F910B1606B416B88470CE02046FFF71F
:1010700079FF08E02046FFF775FF04E02046FFF700
:1010800071FF0020E06389E7FFE705F0800030B1E1
:1010900006F0800018B1204600F03AFA7EE705F02D
:1010A000400030B106F0400018B1204600F051F980
:1010B00074E700BF72E700001F13000810B5044674
:1010C0000CB9012010BDA06900B100E000BF94F888
:1010D000390028B9002084F83800204600F028F8AC
:1010E000242084F839002068C06820F4005021686A
:1010F000C860204600F08EF92068006920F4904016
:10110000216808612068406920F02A002168486150
:101110002068C06840F400502168C8600020E06387
:10112000202084F8390084F83A000020CAE7000043
:1011300010B586B004462849206888424AD100BFCD
:1011400000BF2648806940F00400244988610846B1
:10115000806900F00400019000BF00BF00BF00BF25
:1011600000BF0846806940F0040088610846806935
:1011700000F00400019000BF00BF00BF00BF00BF2F
:101180000846806940F4804088610846806900F420
:101190008040019000BF00BF00BF481502900220B0
:1011A0000390012004900320059002A90C48FFF74A
:1011B000FFF84FF4806002900020039002A90848D5
:1011C000FFF7F6F82520FFF7E8FA0322114625205D
:1011D000FFF7F3FA06B010BD0038014000100240DE
:1011E0000008014010B5034693F83A0020282FD19B
:1011F00001B10AB9012010BD00BF93F838000128E1
:1012000001D10220F7E7012083F8380000BF99627E
:101210009A85DA850020D863222083F83A0000BF3F
:10122000002083F8380000BF1868C06840F4807060
:101230001C68E0601868406940F001001C6860614B
:101240001868C06840F020001C68E0600020D2E709
:101250000220D0E71D4A0168914236D11C49098815
:1012600001F4004189BB1A49098801F4804171B138
:10127000184909780A2903D00021154A118024E071
:101280001349098841F40041114A11801DE01149B8
:1012900009780D2906D10E49098841F480410C4A8C
:1012A000118012E00B490978094A1288C2F30D0235
:1012B000094B995406490988491C054A1180114671
:1012C0000988C72901DD00211180704700380140DD
:1012D0000C0000200E0000201C000020704700BF02
:1012E000FEE700BFFEE770477047000008B50849F9
:1012F0000968C9084FF47A72B1FBF2F141430091D9
:1013000000BF00BF00994A1E00920029F9D108BD14
:1013100000000020704710B5FFF7F8F910BD70B558
:1013200005466C6A0020E085E0842046FFF71AFE3F
:1013300070BD0168C96821F490710268D1600168CC
:10134000496921F0010102685161202180F83A10B9
:10135000704710B504462068C06820F0400021683E
:10136000C860202084F839002046FFF7B7FF00202E
:1013700010BD70B5044694F83A00222847D1A06801
:10138000B0F5805F0CD1206950B90025A66A2068AD
:101390004068C0F308003080A06A801CA06215E09D
:1013A000A56A0026A068B0F5805F03D0A06828B9C0
:1013B000206918B920684068287004E020684068F7
:1013C00000F07F002870A06A401CA062E08D401EE3
:1013D00080B2E085C8B92068C06820F0200021688C
:1013E000C8602068C06820F480702168C8602068E8
:1013F000406920F0010021684861202084F83A000B
:101400002046FFF727FF002070BD0020FCE70220E8
:10141000FAE7000070B504462168096921F44051DB
:10142000E2681143226811612269A168114362696F
:1014300041EA02052168C96841F20C6291432943DF
:101440002268D1602168496921F44071A269114381
:10145000226851612D4A2168914202D1FFF7DCFADE
:1014600001E0FFF7C9FA00EBC00101EB001162686F
:101470009200B1FBF2F100EBC00202EB00126368D4
:101480009B00B2FBF3F26423B2FBF3F202EBC20364
:1014900003EB0212A1EB8201322202EB0111642262
:1014A000B1FBF2F101F0F00100EBC00202EB00121F
:1014B00063689B00B2FBF3F26423B2FBF3F201EB2F
:1014C000021200EBC00101EB001163689B00B1FB4D
:1014D000F3F100EBC00303EB00136668B600B3FB47
:1014E000F6F36426B3FBF6F303EBC30606EB031334
:1014F000A1EB8301322303EB01116423B1FBF3F170
:1015000001F00F0111442268916070BD0038014064
:10151000014691F83900212828D18868B0F5805F0C
:101520000BD1086948B90A6A1088C0F308000B6833
:101530005860086A801C086205E00B6A581C086243
:1015400018780B685860C88C401E80B2C88458B99F
:101550000868C06820F080000B68D8600868C06820
:1015600040F040000B68D860002070470220FCE784
:1015700010B50648FFF7F8FC00BF012204490348F4
:10158000FFF730FE0028F8D110BD0000E400002075
:101590000E00002000BFFEE702480068C0F30220F2
:1015A000704700000CED00E010B5002804DB0A07CE
:1015B000130E054A135406E00A07140E034A00F0FE
:1015C0000F031B1FD45410BD00E400E018ED00E031
:1015D00000BF704701490860704700000400002008
:1015E00010B504464FF47A7104FB01F000F002F8E4
:1015F00010BD000070B5034600224FF0E02675696B
:101600000D4E366803FB06F44FF0E026B16910E09A
:101610004FF0E026B06988420BD0884202D20E1A01
:10162000324402E02E1A0E4432440146A24200D354
:1016300000E0EDE700BF70BD0400002000B585B0FC
:1016400000BF00BF1048806940F004000E49886167
:101650000846806900F00400009000BF00BF00BF92
:1016600001200190094802900220039001A9084836
:10167000FEF79EFE022211460620FFF79EF8062086
:10168000FFF78BF805B000BD0010024000001110FC
:101690000008014000B585B000BF1D48806940F0DA
:1016A00004001B4988610846806900F0040000902E
:1016B00000BF00BF00BF0846806940F00800886195
:1016C0000846806900F00800009000BF00BFC020FD
:1016D0000190002002900220039001A90D48FEF71E
:1016E00067FE80200190002002900220039001A953
:1016F0000948FEF75DFE04200190002002900120C1
:10170000039001A90348FEF753FE05B000BD000099
:101710000010024000080140000C014070B5044672
:101720000025012C01D12C4908702B480078002895
:1017300038D080212948FEF7CBFF012810D0402166
:101740002648FEF7C5FF01280AD080212448FEF76D
:10175000BFFF012804D004212048FEF7B9FF08BBD1
:101760000A20FFF73DFF00201B49087080211B481D
:10177000FEF7AEFF012800D1012540211748FEF7F2
:10178000A7FF012800D1022580211548FEF7A0FF00
:10179000012800D1032504211048FEF799FFC0B9A4
:1017A000042516E080210D48FEF792FF88B94021FC
:1017B0000A48FEF78DFF60B980210948FEF788FFCF
:1017C00038B904210548FEF783FF012801D10249F9
:1017D0000870284670BD0000190000200008014074
:1017E000000C014000B585B000BF1048806940F092
:1017F00008000E4988610846806900F008000090E2
:1018000000BF00BF4FF42A400190012002900390D6
:101810000320049001A90648FEF7CAFD01224FF4F7
:101820002A410348FEF766FF05B000BD00100240E4
:10183000000C0140FEF776FF4FF4E01000F03CF89A
:101840004820FFF7C7FE4FF4E13000F069F8FFF7DA
:10185000C9FFFFF71FFFFFF7F1FE2AE041F28830D2
:10186000FFF7BEFE0020FFF759FF04460CB3012C22
:1018700006D0022C0AD0032C0ED0042C18D111E073
:101880004FF400410B48FEF72BFF11E04FF40051DD
:101890000848FEF725FF0BE04FF400610548FEF70E
:1018A0001FFF05E04FF400710248FEF719FF00BF6B
:1018B00000BFD3E7000C014030B58FB005460124CE
:1018C000282105A8FEF77BFC14216846FEF777FC6B
:1018D00001200590000406900020079002200C9043
:1018E000C1030D910E9505A8FFF7F0F804460CB161
:1018F00000BFFEE70F200090022001900020029020
:101900004FF4806003900020049002216846FEF7A7
:10191000A7FF04460CB100BFFEE70FB030BD0000CA
:1019200010B5044609480A49086008464460002189
:101930008160C160016181610C214161FFF7BEFBE3
:10194000012204490248FFF74DFC10BD0038014058
:10195000E40000200E000020000000000000000055
:101960000102030406070809000000000102030445
:1019700090190008000000201C0000002801000849
:10198000AC1900081C0000206C0500004401000890
:101990000024F4000000000000000000000000002F
:0C19A00000000000100000000101000029
:04000005080000ED02
:00000001FF
