:020000040800F2
:1000000088060020A1010008971A00088F1A00082E
:10001000931A0008A50C0008C91C00080000000085
:10002000000000000000000000000000C51A0008E9
:10003000A90C000800000000991A0008C71A00085F
:10004000B7010008B7010008B7010008B7010008B0
:10005000B7010008B7010008B7010008B7010008A0
:10006000B7010008B7010008B7010008B701000890
:10007000B7010008B7010008B7010008B701000880
:10008000B7010008B7010008B7010008B701000870
:10009000B7010008B7010008B7010008B701000860
:1000A000B7010008B7010008B7010008B701000850
:1000B000B7010008B7010008B7010008B701000840
:1000C000B7010008B7010008B7010008B701000830
:1000D000B7010008391C0008B7010008B701000883
:1000E000B7010008B7010008B701000800F002F8E6
:1000F00000F047F80AA090E8000C82448344AAF17B
:100100000107DA4501D100F03CF8AFF2090EBAE878
:100110000F0013F0010F18BFFB1A43F0010318473B
:10012000441E0000641E0000103A24BF78C878C145
:10013000FAD8520724BF30C830C144BF04680C60ED
:10014000704700000023002400250026103A28BF35
:1001500078C1FBD8520728BF30C148BF0B60704739
:10016000642900F07780002070471FB59DE80300E8
:1001700000F06AFB00F05CF91FBD10B500F0C1F99A
:1001800010BD00F024FA1146FFF7EFFF01F026FE44
:1001900000F028FB03B4FFF7F0FF03BC00F0E6FC1F
:1001A00008480047FEE7FEE7FEE7FEE7FEE7FEE75A
:1001B000FEE7FEE7FEE7FEE703480449024A044B78
:1001C00070470000ED00000888020020880600202B
:1001D000880200200FB4044910B503AA029800F069
:1001E000F9F810BC5DF814FB800100202DE9F04106
:1001F0000E460446002020622046E168884730B35E
:10020000252805D0D4E901219047206A401CF2E757
:10021000E168204600278847050018D0A5F1410075
:10022000192802D820354FF4006732462946204667
:100230002760FFF795FF40B1012804D0F61D26F096
:1002400007060836D8E7361DD6E72846DAE7206ADB
:10025000BDE8F0812DE9F0410646002410687529BB
:10026000314616A510D0AFF30080002802DA4042D4
:1002700013A507E031688A0701D512A502E04907F6
:1002800004D511A5012401E0AFF3008000210A226A
:1002900006F1240709E0B0FBF2FCB0FBF2F302FB2D
:1002A0001C00303078541846491C0028F3D12346EE
:1002B0002A463046BDE8F04100F032B800000000A8
:1002C0002D0000002B000000200000004FF0000275
:1002D00000B5134694469646203922BFA0E80C503C
:1002E000A0E80C50B1F12001BFF4F7AF090728BF17
:1002F000A0E80C5048BF0CC05DF804EB890028BF93
:1003000040F8042B08BF704748BF20F8022B11F0BB
:10031000804F18BF00F8012B704770477047704737
:100320002DE9F0470D4699469246044600F124080F
:100330000168880604D5E06921F01001216000E021
:100340000120A84201DD471B00E00027A1697A19BE
:1003500002EB0900081AA0612078C00602D42046EA
:10036000AFF30080002608E0D4E901211AF8060066
:100370009047206A401C761C20624E45F4DB2078B2
:10038000C0060AD52046AFF3008006E0D4E901217B
:1003900030209047206A401C2062381EA7F10107D8
:1003A000F4DC07E0D4E9012118F805009047206A41
:1003B000401C2062281EA5F10105F3DC2046AFF3A6
:1003C00000802078000602D50220BDE8F0870120D9
:1003D000FBE70000074B70B50D467B4400F011F8B9
:1003E0000446284600F020F810B14FF0FF3070BDF1
:1003F000204670BD8F19000001694A1C026108780F
:10040000704700B58FB0CDE9013100210591054954
:100410007944CDE9031011466846FFF7E7FE0FB0B7
:1004200000BD0000E5FFFFFF007B00F0800070478B
:1004300010B542485421FFF749FF41485421FFF7C6
:1004400045FF40485421FFF741FF3F493B483C4AA4
:100450003F4B08603D490A603A491960531C0365E7
:10046000481C1065012008653B48344A39A178448E
:1004700000F01CF920B9384878440A3800F0BBF97C
:1004800037482F4A35A1784400F010F920B9344894
:1004900078440A3800F0AFF932482A4A2FA178444C
:1004A00000F004F920B92F4878440A3800F0A3F985
:1004B00040232248DC000021224600F0D4F820B17D
:1004C00025487844543800F096F91D4822464023C8
:1004D000002100F0C8F820B121487844543800F0D9
:1004E0008AF9184822461023002100F0BCF80028A1
:1004F00006D01C487844BDE81040563800F07BB95F
:1005000010BD104870B5006D20F001040B4800F0DC
:1005100043F90B4800F040F90A4800F03DF909E0C2
:10052000206D20F00105204600F036F9204600F04D
:1005300073F82C46002CF3D170BD00002C01002074
:1005400080010020D4010020180000201C000020A1
:100550002000002072000000E61A00007700000072
:10056000D21A0000BE1A00000EB5CDE9000100F05D
:10057000DDFA029069460120ABBE0EBD08B56946A2
:1005800000900220ABBE08BD1FB58DE8070069468C
:100590000520ABBE04B010BD1FB58DE80F00694645
:1005A0000620ABBEF6E708B5694600900920ABBE51
:1005B00008BD1CB5CDE9000169460A20ABBE1CBDD3
:1005C000704708B5694600900C20ABBE08BD754663
:1005D00000F018F9AE4605006946534620F00700C2
:1005E000854618B020B5FFF7E7FDBDE820404FF085
:1005F00000064FF000074FF000084FF0000B21F00D
:100600000701AC46ACE8C009ACE8C009ACE8C009D9
:10061000ACE8C0098D46704770B50446051F00F070
:10062000F7F80068002C14BF446870BD002C18BF98
:10063000AC423CBF20466468F8D301680A18AA425D
:1006400018BF456003D12A68054611440160286837
:100650004119A1421CBF6C6070BD6168696021686E
:100660000844286070BD70B5C468A50713D0650242
:1006700011D4B2F5807F09D0B2F5007F06D0B2F573
:10068000806F08D1012300F1240106E05D1E6FF0A8
:100690007F46B54201D3012070BD0161C361416055
:1006A00024F470611143C160002070BD2DE9F04158
:1006B0000C4607461646104600F06EF82078611C7E
:1006C00061280AD0722802D077283CD102E00125A7
:1006D000002405E00225042402E0082448F2020573
:1006E00011F8010B2B2806D0622809D011F8010C53
:1006F00074280AD00BE045F0030544F00204EFE74C
:1007000045F0040544F00104EAE744F010043846DB
:100710002146FFF729FF411C15D00021316171608E
:100720004FF40071F560F1617061200704D5304627
:100730000222002100F0E6F8306D40F00100306543
:100740003046BDE8F0810020FBE72DE9F0410D4681
:100750000646104C206DC10704D0410804D020F09B
:100760000104F7E722460EE0542000F09CF8070051
:100770000ED0206D47F00101084354212065384612
:10078000FFF7A4FD3A4629463046BDE8F0418DE723
:100790000020D6E72C0100202DE9F04704464FF059
:1007A00000094FF0FF37C568D4E90486A80707D0D1
:1007B000204600F057F93046FFF7E0FE002802DA45
:1007C0003846BDE8F087280502D54046FFF724FFEC
:1007D0004C212046FFF77AFD206D20F001002065B6
:1007E0004846EEE710B50446AFF300802046BDE86A
:1007F0001040FFF7CFBC10B500F07EF9BDE8104007
:1008000000F074B9004870472802002070470000CB
:1008100000487047300200207047704770477047AB
:1008200038B504460A4600206946AFF30080002828
:1008300008BF38BD02460099204600F0A4F9012007
:1008400038BD012000F0F3B9F8B5AFF300800546DC
:1008500000200C46102000BF0646A819A0420DD962
:10086000324669460020AFF30080070008BF00F061
:10087000DEF90098A04218BF0546C419FFF7C8FF6B
:1008800005600746F01D20F007004619284600F0D5
:1008900073F9B44208BFF8BDA21B31463868BDE801
:1008A000F84000F070B970B50646FFF7B1FF056873
:1008B00006F10B0020F00704B4429CBF002070BD7D
:1008C0002B466A68BAB11068A04210D304F108013F
:1008D00088423CBF5068586007D351681019416086
:1008E0001168091B016058601460101D70BD13462B
:1008F0005268002AE7D121462846FFF791FF0028D9
:10090000DED170BD2DE9F041044616460D4647691B
:10091000007B80072ED03846FFF745FE50BB3EB324
:10092000012E02D0022E25D104E0204600F045F928
:1009300005441DE03846FFF744FEE168002841F019
:100940001001E16005DA204600F058F80120BDE80A
:10095000F081C9030BD56268E16A914200D8114663
:10096000A26911442269891A814200DD08460544C2
:10097000002D01DA0220EAE7E16A6068E26881425C
:1009800006D29103E06203D522F4003141F0100257
:10099000A6690027AE4213DCE16A814201D90B4609
:1009A00000E0034603EB060C2369ACEB030CAC45FB
:1009B00006DD814201D98C4600E084469C4505D184
:1009C000A760276042F02000A5620DE0AD1BE6693C
:1009D000AE1B8142A66000D90846C01A281A2060C2
:1009E0005819606022F0200003490840E0600020B0
:1009F00084F84870ABE70000BFCFD7FFC16821F48F
:100A0000001141F08001C1600021816001607047E8
:100A10002DE9F047814614460E464FF0FF38324824
:100A2000D5685769054209D03846A169FFF7C1FD6D
:100A3000002811DB2C48C0430540E5602B463246B8
:100A400049463846FFF7A0FDA16920F00042B21ADE
:100A500011440028A16103D02046FFF7CFFF404694
:100A6000BDE8F08770B504460569C06A61688842D0
:100A700000D80846E16821F42011E160C90312D5CD
:100A8000A84208D02246411B2846FFF7C1FF10B1FB
:100A90004FF0FF3070BD0020E562C4E90150E0680E
:100AA00020F48030E060002070BD10B50446C068BE
:100AB00020F02000E060A16AA06988420DD02046A5
:100AC000FFF7D0FFE06820F4405040F01000E060F5
:100AD000A06AA0612069E062606044F24001E068C1
:100AE0008843E06010BD000010000200002801D023
:100AF00000F03CB87047000010B5014602A000F0BD
:100B00007DF8012010BD000053494752545245441E
:100B10003A2052656469726563743A2063616E2796
:100B200074206F70656E3A200000000010B5431C01
:100B300002E010F8011B71B18107FAD14FF00132C8
:100B400002C88C1A8C4314EAC211F9D0C01A0A06E2
:100B500003D0C01E10BDC01A10BD0A0401D0801EF3
:100B600010BD0902FCD0401E10BD00000149182034
:100B7000ABBEFEE72600020000210160C0E90110C3
:100B8000704710207047034640688C46002818BF05
:100B900088423CBF03464068F8D31868184488422E
:100BA00007D00CF1030020F00700001D411A521A73
:100BB0000146081D0A60FFF72FBD10B50146C26847
:100BC000900703D0900607D5886A0AE000F03EF847
:100BD00001210160881E10BD8B69486818440B69AB
:100BE000C01A91F848301BB191F84910401A10BD55
:100BF0001103FCD50028FADD401E10BD70B5054676
:100C00000C460A2000E06D1C00F018F835B1287879
:100C10000028F8D102E0641C00F010F814B120782C
:100C20000028F8D1BDE870400A2000F007B810B5E0
:100C300000F010F8BDE81040FFF758BF08B569464E
:100C40008DF800000320ABBE08BD000000487047CF
:100C50002802002010B5012805D0002103A0FFF7CD
:100C6000CDFF012010BD09A1F8E70000534947520C
:100C7000544D454D3A204F7574206F66206865616C
:100C800070206D656D6F7279000000003A20486534
:100C90006170206D656D6F727920636F727275700F
:100CA0007465640000BFFEE7704700002DE9F84757
:100CB000024600239C467BE14FF0010808FA03F44A
:100CC000D1F8008008EA0400A0427DD1DFF8F4A248
:100CD000D1F80480A8EB0A09D0453AD014DCB8F169
:100CE000030F50D009DCB8F1000F31D0B8F1010F7B
:100CF0001CD0B8F1020F49D120E0B8F1110F18D083
:100D0000B8F1120F42D11EE0B9F5881F25D006DCDC
:100D1000B9F5803F20D0B9F5801F37D11AE0B9F579
:100D2000001F18D0B9F5041F30D117E0D1F80CC05E
:100D30002DE0D1F80C8008F1040C28E0D1F80C80EB
:100D400008F1080C23E0D1F80C8008F10C0C1EE02F
:100D500000BF00BF00BF00BF00BF00BFD1F80880C8
:100D6000B8F1000F02D14FF0040C0BE0D1F808806D
:100D7000B8F1010F03D14FF0080C146102E04FF0FD
:100D8000080C546103E04FF0000C00E000BF00BF0E
:100D9000FF2801D8904601E002F104084646FF28EA
:100DA00002D84FEA830803E0A3F108084FEA880855
:100DB0004746D6F800804FF00F0909FA07F928EAEC
:100DC00009080CFA07F900E07AE048EA0908C6F8D1
:100DD0000080D1F8048008F08058B8F1805F6FD1AE
:100DE00000BFDFF8E481D8F8188048F00108DFF888
:100DF000D891C9F81880C846D8F8188008F00108BA
:100E0000CDF8008000BF00BF4FEAB9384FEA930920
:100E100058F829504FEA83784FEA18794FF00F08B5
:100E200008FA09F825EA0805DFF8A081424502D151
:100E30004FF0000824E0DFF89881424502D14FF0DE
:100E400001081DE0DFF88C81424502D14FF0020815
:100E500016E0DFF88481424502D14FF003080FE02D
:100E6000DFF87881424502D14FF0040808E0DFF84E
:100E70007081424502D14FF0050801E04FF00608AD
:100E80004FEA83794FEA197908FA09F848EA050523
:100E9000DFF850814FEA930948F82950D1F80480CF
:100EA00008F48038B8F5803F0BD1DFF83C81D8F8E2
:100EB000008048EA0008DFF83091C9F800800AE0B5
:100EC00075E0DFF82481D8F8008028EA0008DFF810
:100ED0001891C9F80080D1F8048008F40038B8F5FA
:100EE000003F0ED1DFF8008108F10408D8F8008037
:100EF00048EA0008DFF8F09009F10409C9F8008019
:100F00000DE0DFF8E48008F10408D8F8008028EA52
:100F10000008DFF8D49009F10409C9F80080D1F87D
:100F2000048008F48018B8F5801F0ED1DFF8B8806F
:100F300008F10808D8F8008048EA0008DFF8A8900F
:100F400009F10809C9F800800DE0DFF89C8008F17C
:100F50000808D8F8008028EA0008DFF88C9009F12A
:100F60000809C9F80080D1F8048008F40018B8F521
:100F7000001F0ED1DFF8708008F10C08D8F800804F
:100F800048EA0008DFF8609009F10C09C9F8008010
:100F90000DE0DFF8548008F10C08D8F8008028EA4A
:100FA0000008DFF8449009F10C09C9F800805B1CC7
:100FB000D1F8008028FA03F8B8F1000F7FF47CAE76
:100FC000BDE8F88700001110001002400008014041
:100FD000000C0140001001400014014000180140C5
:100FE000001C0140080001400004014010B5C26827
:100FF00021EA020302EA010443EA0443036110BD4B
:101000000AB1016101E00B04036170470148006807
:101010007047000008000020034800680349097871
:1010200008440149086070470800002010000020B3
:1010300010B50848006840F0100006490860052017
:1010400000F080F80F2000F007F800F02BF80020E7
:1010500010BD00000020024070B504460E48007824
:101060004FF47A71B1FBF0F00C490968B1FBF0F56F
:10107000284600F0E3FB08B1012070BD102C07D218
:1010800000222146501E00F01EF80548046001E0D1
:101090000120F2E70020F0E710000020040000200B
:1010A0000C000020704701460846002809DB00F0CC
:1010B0001F0301229A4043099B0003F1E023C3F878
:1010C000002100BF70472DE9F05F80460D461646AF
:1010D000002700F0FBFD074639462A46334601F05B
:1010E0000700C0F1070ABAF1040F02D94FF0040A51
:1010F00001E0C0F1070AD14600F1040ABAF1070F76
:1011000002D24FF0000A01E0A0F1030AD4464FF0EA
:10111000010A0AFA09FAAAF1010A0AEA020A0AFA13
:101120000CFA4FF0010B0BFA0CFBABF1010B0BEAC5
:10113000030B4AEA0B042146404600F0CFFDBDE810
:10114000F09F000000BF00F00702064B19684FF641
:10115000FF031940044B0B4343EA0221014B196082
:1011600000BF70470CED00E00000FA0570B50446C2
:101170000D460CB9012070BD5A48006800F0070008
:10118000A8420ED25748006820F00700284355496E
:1011900008600846006800F00700A84201D001205E
:1011A000E9E7207800F0020002281DD1207800F045
:1011B0000400042805D14C48406840F4E0604A49E6
:1011C0004860207800F00800082805D146484068AB
:1011D00040F46050444948604348406820F0F000C3
:1011E000A168084340494860207800F0010078B3C6
:1011F0006068012806D13C48006800F4003090B9CE
:101200000120B8E76068022806D13748006800F07E
:10121000007040B90120AEE73348006800F00200DA
:1012200008B90120A7E73048406820F00300616852
:1012300008432D494860FFF7E9FE064609E0FFF73D
:10124000E5FE801B41F28831884202D9032092E7F3
:1012500007E02548406800F00C006168B0EB810FA2
:10126000EDD12048006800F00700A8420ED91D48C3
:10127000006820F0070028431A4908600846006803
:1012800000F00700A84201D0012074E7207800F0A8
:101290000400042807D11448406820F4E060E168A5
:1012A000084311494860207800F00800082808D158
:1012B0000D48406820F46050216940EAC1000A49A5
:1012C000486000F03FF808494968C1F30311074A34
:1012D000515CC8400649086006480068FFF7BCFE3C
:1012E000002048E70020024000100240401F000894
:1012F000040000200C000020014800687047000036
:101300000400002000B5FFF7F7FF04494968C1F366
:101310000221034A515CC84000BD00000010024099
:10132000501F000800B5FFF7E7FF04494968C1F303
:10133000C221034A515CC84000BD000000100240B9
:10134000501F0008F0B585B00FF26C0C9CE8E0105F
:1013500001A8A0E8E0101CA52D680095002100223E
:10136000002300240020194D696801F00C05F5B137
:10137000042D02D0082D19D101E0154819E001AD66
:10138000C1F38346AC5D01F4803555B10F4D6D68F6
:10139000C5F340451DF805200D4D6543B5FBF2F33F
:1013A00002E00C4D04FB05F3184602E000BF0848BC
:1013B00000BF00BF05B0F0BD020304050607080921
:1013C0000A0B0C0D0E0F101001020000001002405D
:1013D00000127A0000093D00F8B504460CB901205E
:1013E000F8BD207800F00100002878D0F848406867
:1013F00000F00C0004280CD0F548406800F00C0008
:10140000082811D1F248406800F48030B0F5803FE0
:101410000AD1EF48006800F4003000285FD060680F
:1014200000285CD10120DBE700BF6068B0F5803F99
:1014300006D1E748006840F48030E549086028E0BC
:10144000606858B9E248006820F48030E0490860DC
:101450000846006820F4802008601AE06068B0F553
:10146000A02F0BD1DA48006840F48020D8490860EA
:101470000846006840F4803008600AE0D4480068FC
:1014800020F48030D24908600846006820F48020AB
:10149000086000BF606888B1FFF7B8FD054606E048
:1014A000FFF7B4FD401B642801D9032098E7C84822
:1014B000006800F400300028F2D010E0FFF7A6FD2D
:1014C000054606E0FFF7A2FD401B642801D9032072
:1014D00086E7BF48006800F400300028F2D1207889
:1014E00000F00200022857D1B948406800F00C0013
:1014F00050B1B748406800F00C00082818D1B44833
:10150000406800F4803098B9B148006800F00200EB
:1015100020B12069012801D0012061E7AC480068B2
:1015200020F0F800616940EAC100A949086033E091
:101530002069E8B10120A7490860FFF767FD05466B
:1015400006E0FFF763FD401B022801D9032047E7AF
:101550009F48006800F002000028F2D09C48006814
:1015600020F0F800616940EAC1009949086013E081
:10157000002098490860FFF749FD054606E0FFF79F
:1015800045FD401B022801D9032029E79048006847
:1015900000F002000028F2D1207800F008000828AE
:1015A0002DD1A069B8B101208B490860FFF72EFD4D
:1015B000054606E0FFF72AFD401B022801D903205B
:1015C0000EE78348406A00F002000028F2D00120B4
:1015D00000F064FA13E000207F490860FFF716FD71
:1015E000054606E0FFF712FD401B022801D9032043
:1015F000F6E67748406A00F002000028F2D1207831
:1016000000F00400042873D100277148C06900F07D
:10161000805070B900BF6E48C06940F080506C497E
:10162000C8610846C06900F08050009000BF00BF4C
:1016300001276A48006800F48070B0B96748006804
:1016400040F4807065490860FFF7E0FC054606E05D
:10165000FFF7DCFC401B642801D90320C0E65F488B
:10166000006800F480700028F2D000BFE068012814
:1016700006D15748006A40F001005549086227E04A
:10168000E06858B95248006A20F0010050490862E9
:101690000846006A20F00400086219E0E0680528A6
:1016A0000BD14B48006A40F00400494908620846E3
:1016B000006A40F0010008620AE04548006A20F034
:1016C0000100434908620846006A20F004000862ED
:1016D00000BFE068A0B1FFF799FC054609E0FFF7FD
:1016E00095FC401B41F28831884202D9032077E6FD
:1016F00022E03748006A00F002000028EFD012E034
:10170000FFF784FC054608E0FFF780FC401B41F230
:101710008831884201D9032062E62D48006A00F032
:1017200002000028F0D1012F05D12948C06920F01E
:1017300080502749C86100BFE069C8B324484068A9
:1017400000F00C00082860D0E069022848D1002091
:1017500020490866FFF75AFC054606E0FFF756FCED
:10176000401B022801D903203AE61948006800F01E
:1017700000700028F2D1206AB0F5803F07D11448EC
:10178000406820F40030A168084311494860D4E95A
:10179000080108430E49496821F4741108430C49B3
:1017A000486001200B490866FFF730FC054607E05A
:1017B0003DE0FFF72BFC401B022801D903200FE678
:1017C0000348006800F000700028F2D02FE000000D
:1017D000001002400000424280044242007000407B
:1017E000002014490866FFF711FC054606E0FFF7E4
:1017F0000DFC401B022801D90320F1E50E480068CA
:1018000000F000700028F2D111E0E069012800D159
:10181000E6E50948466806F48031206A814204D131
:1018200006F47011606A814201D00120D8E50020E1
:10183000D6E50000000042420010024070B50446A8
:101840002546681EB0F1807F01D301200FE0681E9D
:101850004FF0E02148610F214FF0FF3000F03EFAD9
:1018600000204FF0E021886107200861002070BD52
:1018700010B504460CB9012010BDA06900B100E00C
:1018800000BF94F8390028B9002084F838002046B9
:1018900000F027F8242084F839002068C06820F47C
:1018A00000502168C860204600F012F920680069E5
:1018B00020F49040216808612068406920F02A00E7
:1018C000216848612068C06840F400502168C86001
:1018D0000020E063202084F8390084F83A000020DA
:1018E000CAE770472DE9F84F04460E461746994659
:1018F0004FF0000A94F83A0020285DD106B117B9DC
:101900000120BDE8F88F00BF94F83800012801D10C
:101910000220F6E7012084F8380000BF0020E063D1
:10192000222084F83A00FFF771FB8246A785E785FD
:10193000A068B0F5805F04D1206910B90025B046D9
:1019400002E035464FF0000800BF002084F8380060
:1019500000BF29E05346002220212046CDF8009008
:1019600000F034F908B10320CBE745B9206840689E
:10197000C0F30800A8F8000008F1020811E0A06810
:10198000B0F5805F03D0A06828B9206918B9206835
:101990004068287004E02068406800F07F002870EC
:1019A0006D1CE08D401EE085E08D0028D2D1202006
:1019B00084F83A000020A4E70220A2E72DE9F84FBE
:1019C00004460E46174699464FF0000A94F839002F
:1019D00020285AD106B117B90120BDE8F88F00BF01
:1019E00094F83800012801D10220F6E7012084F89C
:1019F000380000BF0020E063212084F83900FFF7A1
:101A000005FB8246A784E784A068B0F5805F04D117
:101A1000206910B90025B04602E035464FF00008B5
:101A200000BF002084F8380000BF1BE053460022AE
:101A300080212046CDF8009000F0C8F808B10320BE
:101A4000CBE745B9B8F80000C0F30800216848604A
:101A500008F1020803E02878216848606D1CE08CDA
:101A6000401EE084E08C0028E0D153460022402153
:101A70002046CDF8009000F0A9F808B10320ACE7AB
:101A8000202084F839000020A7E70220A5E700BF46
:101A9000FEE700BFFEE770477047000008B5084941
:101AA0000968C9084FF47A72B1FBF2F14143009121
:101AB00000BF00BF00994A1E00920029F9D108BD5D
:101AC00004000020704710B5FFF7A6FA10BD000013
:101AD00070B504462168096921F44051E268114358
:101AE000226811612269A1681143626941EA020515
:101AF0002168C96841F20C62914329432268D16090
:101B00002168496921F44071A26911432268516139
:101B10002D4A2168914202D1FFF704FC01E0FFF752
:101B2000F1FB00EBC00101EB001162689200B1FB18
:101B3000F2F100EBC00202EB001263689B00B2FB03
:101B4000F3F26423B2FBF3F202EBC20303EB0212E3
:101B5000A1EB8201322202EB01116422B1FBF2F10E
:101B600001F0F00100EBC00202EB001263689B0081
:101B7000B2FBF3F26423B2FBF3F201EB021200EBCF
:101B8000C00101EB001163689B00B1FBF3F100EBB6
:101B9000C00303EB00136668B600B3FBF6F36426DC
:101BA000B3FBF6F303EBC30606EB0313A1EB8301D0
:101BB000322303EB01116423B1FBF3F101F00F01B8
:101BC00011442268916070BD003801402DE9F04158
:101BD00004460D4617469846069E21E0701CF8B153
:101BE0002EB1FFF713FAA0EB0800B04218D9206815
:101BF000C06820F4D0702168C8602068406920F077
:101C0000010021684861202084F8390084F83A00F6
:101C100000BF002084F8380000BF0320BDE8F08139
:101C2000206800682840A84201D1012000E000207F
:101C3000B842D3D00020F1E708B51E48006800681C
:101C4000C0F3401088B1642301221B491948FFF7F3
:101C500049FE50B9184800781849194A1278885432
:101C600017480078401C1649087012480068006840
:101C7000C0F30010E8B100BF4FF480711148FFF7C6
:101C8000B5F900BF00BF002000900A480068006856
:101C90000090084800684068009000BF00BF6423BF
:101CA0000748027805490348FFF788FE00200449E9
:101CB000087008BD240000200000002064000020FF
:101CC000010000200008014000BFFEE70248006854
:101CD000C0F30220704700000CED00E010B50028B2
:101CE00004DB0A07130E054A135406E00A07140E14
:101CF000034A00F00F031B1FD45410BD00E400E0A2
:101D000018ED00E001490860704700001400002051
:101D100010B504464FF47A7104FB01F000F002F8AC
:101D200010BD000070B5034600224FF0E026756933
:101D30000D4E366803FB06F44FF0E026B16910E063
:101D40004FF0E026B06988420BD0884202D20E1ACA
:101D5000324402E02E1A0E4432440146A24200D31D
:101D600000E0EDE700BF70BD1400002000BF054A91
:101D7000126802F04002002AF9D0C2B2014B1B1DCA
:101D80001A6070470038014000B585B000BF00BF41
:101D90001048806940F004000E4988610846806957
:101DA00000F00400009000BF00BF00BF8815019044
:101DB0000120029003900320049001A90648FEF739
:101DC00075FF00BF012211020348FFF719F900BF98
:101DD00005B000BD0010024000080140FFF728F9DF
:101DE0004FF4E01000F016F84820FFF78BFF00F0EA
:101DF00045F8FFF7C9FF07E0322104A0FEF7EAF932
:101E00004FF47A70FFF784FFF6E700006E756D3AC5
:101E10002564200030B58FB005460124282105A88F
:101E2000FEF754FA14216846FEF750FA0120059097
:101E3000000406900020079002200C90C1030D9131
:101E40000E9505A8FFF7C8FA04460CB100BFFEE7DF
:101E50000F20009002200190002002904FF480603B
:101E600003900020049002216846FFF77FF90446A2
:101E70000CB100BFFEE70FB030BD000000B585B06B
:101E800000BF2B48806940F004002949886108465A
:101E9000806900F00400009000BF00BF00BF08464A
:101EA000806940F4804088610846806900F4804081
:101EB000009000BF00BF481501900220029003204F
:101EC000049001A91B48FEF7F1FE4FF480600190D9
:101ED0000020029001A91748FEF7E8FE16481749AE
:101EE00008604FF4E1304860002114488160C1600F
:101EF000016181610C214161FFF7BAFC2520FFF7E8
:101F0000D2F8032211462520FFF7DDF80B480068C0
:101F1000C06840F0200009490968C86007480068A7
:101F2000C06840F0100005490968C86005B000BDF0
:101F30000010024000080140003801402400002049
:101F40000000000000000000010203040607080969
:101F500000000000010203043A7474003A74740033
:101F60003A747400841F0008000000202400000060
:101F700028010008A81F00082400002064060000B3
:101F800044010008000000000024F40000000000EC
:101F90001000000001000000000000000000000030
:081FA000000000000000000039
:04000005080000ED02
:00000001FF
