:020000040800F2
:10000000B804002089010008670F00085F0F00088E
:10001000630F0008830200080911000800000000B7
:10002000000000000000000000000000950F000824
:100030008702000800000000690F0008970F000801
:100040009F0100089F0100089F0100089F01000810
:100050009F0100089F0100089F0100089F01000800
:100060009F0100089F0100089F0100089F010008F0
:100070009F0100089F0100089F0100089F010008E0
:100080009F0100089F0100089F0100089F010008D0
:100090009F0100089F0100089F0100089F010008C0
:1000A0009F0100089F0100089F0100089F010008B0
:1000B0009F0100089F0100089F0100089F010008A0
:1000C0009F0100089F0100089F0100089F01000890
:1000D0009F0100089F0100089F0100089F01000880
:1000E0009F0100089F0100089F01000800F002F82E
:1000F00000F03AF80AA090E8000C82448344AAF188
:100100000107DA4501D100F02FF8AFF2090EBAE885
:100110000F0013F0010F18BFFB1A43F0010318473B
:100120003C1200005C120000103A24BF78C878C16D
:10013000FAD8520724BF30C830C144BF04680C60ED
:10014000704700000023002400250026103A28BF35
:1001500078C1FBD8520728BF30C148BF0B60704739
:100160001FB51FBD10B510BD00F052F81146FFF7C6
:10017000F7FF01F045F800F070F803B4FFF7F2FF65
:1001800003BC00F077F8000008480047FEE7FEE7F0
:10019000FEE7FEE7FEE7FEE7FEE7FEE7FEE7FEE737
:1001A00003480449024A044B70470000ED00000870
:1001B000B8000020B8040020B80000204FF0000272
:1001C00000B5134694469646203922BFA0E80C504D
:1001D000A0E80C50B1F12001BFF4F7AF090728BF28
:1001E000A0E80C5048BF0CC05DF804EB890028BFA4
:1001F00040F8042B08BF704748BF20F8022B11F0CD
:10020000804F18BF00F8012B704770477047704748
:10021000754600F02BF8AE4605006946534620F0BF
:100220000700854618B020B5FFF7BAFFBDE82040AB
:100230004FF000064FF000074FF000084FF0000BA2
:1002400021F00701AC46ACE8C009ACE8C009ACE855
:10025000C009ACE8C0098D46704710B50446AFF33D
:1002600000802046BDE81040FFF787BF0048704778
:100270005400002001491820ABBEFEE72600020012
:10028000704700BFFEE770472DE9F847024600239C
:100290009C467BE14FF0010808FA03F4D1F8008096
:1002A00008EA0400A0427DD1DFF8F4A2D1F804806E
:1002B000A8EB0A09D0453AD014DCB8F1030F50D0AE
:1002C00009DCB8F1000F31D0B8F1010F1CD0B8F142
:1002D000020F49D120E0B8F1110F18D0B8F1120F78
:1002E00042D11EE0B9F5881F25D006DCB9F5803F64
:1002F00020D0B9F5801F37D11AE0B9F5001F18D00A
:10030000B9F5041F30D117E0D1F80CC02DE0D1F8B9
:100310000C8008F1040C28E0D1F80C8008F1080CDE
:1003200023E0D1F80C8008F10C0C1EE000BF00BFE8
:1003300000BF00BF00BF00BFD1F80880B8F1000FB8
:1003400002D14FF0040C0BE0D1F80880B8F1010F96
:1003500003D14FF0080C146102E04FF0080C546117
:1003600003E04FF0000C00E000BF00BFFF2801D801
:10037000904601E002F104084646FF2802D84FEA01
:10038000830803E0A3F108084FEA88084746D6F837
:1003900000804FF00F0909FA07F928EA09080CFA5A
:1003A00007F900E07AE048EA0908C6F80080D1F8C9
:1003B000048008F08058B8F1805F6FD100BFDFF88B
:1003C000E481D8F8188048F00108DFF8D891C9F81E
:1003D0001880C846D8F8188008F00108CDF80080C9
:1003E00000BF00BF4FEAB9384FEA930958F82950C7
:1003F0004FEA83784FEA18794FF00F0808FA09F8A6
:1004000025EA0805DFF8A081424502D14FF0000837
:1004100024E0DFF89881424502D14FF001081DE049
:10042000DFF88C81424502D14FF0020816E0DFF878
:100430008481424502D14FF003080FE0DFF8788154
:10044000424502D14FF0040808E0DFF870814245D0
:1004500002D14FF0050801E04FF006084FEA83791A
:100460004FEA197908FA09F848EA0505DFF85081DA
:100470004FEA930948F82950D1F8048008F48038ED
:10048000B8F5803F0BD1DFF83C81D8F8008048EA0E
:100490000008DFF83091C9F800800AE075E0DFF865
:1004A0002481D8F8008028EA0008DFF81891C9F8FC
:1004B0000080D1F8048008F40038B8F5003F0ED170
:1004C000DFF8008108F10408D8F8008048EA000845
:1004D000DFF8F09009F10409C9F800800DE0DFF8B9
:1004E000E48008F10408D8F8008028EA0008DFF862
:1004F000D49009F10409C9F80080D1F8048008F407
:100500008018B8F5801F0ED1DFF8B88008F1080810
:10051000D8F8008048EA0008DFF8A89009F1080937
:10052000C9F800800DE0DFF89C8008F10808D8F8D1
:10053000008028EA0008DFF88C9009F10809C9F862
:100540000080D1F8048008F40018B8F5001F0ED11F
:10055000DFF8708008F10C08D8F8008048EA00083D
:10056000DFF8609009F10C09C9F800800DE0DFF8B0
:10057000548008F10C08D8F8008028EA0008DFF859
:10058000449009F10C09C9F800805B1CD1F8008087
:1005900028FA03F8B8F1000F7FF47CAEBDE8F887C5
:1005A000000011100010024000080140000C014042
:1005B000001001400014014000180140001C0140DF
:1005C00008000140000401400AB1016101E00B0490
:1005D0000361704701480068704700000400002074
:1005E00003480068034909780844014908607047D6
:1005F000040000200C00002010B50848006840F0FE
:10060000100006490860052000F070F80F2000F087
:1006100007F800F02BF8002010BD00000020024079
:1006200070B504460E4800784FF47A71B1FBF0F0D3
:100630000C490968B1FBF0F5284600F0D3FB08B17E
:10064000012070BD102C07D200222146501E00F060
:100650000EF80548046001E00120F2E70020F0E711
:100660000C000020000000200800002070472DE949
:10067000F05F80460D461646002700F047FD07460E
:1006800039462A46334601F00700C0F1070ABAF19D
:10069000040F02D94FF0040A01E0C0F1070AD14665
:1006A00000F1040ABAF1070F02D24FF0000A01E08C
:1006B000A0F1030AD4464FF0010A0AFA09FAAAF196
:1006C000010A0AEA020A0AFA0CFA4FF0010B0BFAC5
:1006D0000CFBABF1010B0BEA030B4AEA0B042146BE
:1006E000404600F01BFDBDE8F09F000000BF00F099
:1006F0000702064B19684FF6FF031940044B0B43E2
:1007000043EA0221014B196000BF70470CED00E085
:100710000000FA0570B504460D460CB9012070BD05
:100720005A48006800F00700A8420ED257480068F7
:1007300020F007002843554908600846006800F08B
:100740000700A84201D00120E9E7207800F002006C
:1007500002281DD1207800F00400042805D14C485F
:10076000406840F4E0604A494860207800F00800A2
:10077000082805D14648406840F460504449486024
:100780004348406820F0F000A168084340494860B1
:10079000207800F0010078B36068012806D13C4859
:1007A000006800F4003090B90120B8E760680228C2
:1007B00006D13748006800F0007040B90120AEE76C
:1007C0003348006800F0020008B90120A7E730486C
:1007D000406820F00300616808432D494860FFF736
:1007E000F9FE064609E0FFF7F5FE801B41F288316D
:1007F000884202D9032092E707E02548406800F0CC
:100800000C006168B0EB810FEDD12048006800F06A
:100810000700A8420ED91D48006820F007002843B1
:100820001A4908600846006800F00700A84201D095
:10083000012074E7207800F00400042807D1144850
:10084000406820F4E060E16808431149486020787E
:1008500000F00800082808D10D48406820F46050D6
:10086000216940EAC1000A49486000F03FF80849A0
:100870004968C1F30311074A515CC8400649086042
:1008800006480068FFF7CCFE002048E70020024041
:10089000001002404413000800000020080000205F
:1008A00001480068704700000000002000B5FFF715
:1008B000F7FF04494968C1F30221034A515CC8406B
:1008C00000BD0000001002405413000800B5FFF7FF
:1008D000E7FF04494968C1F3C221034A515CC8409B
:1008E00000BD00000010024054130008F0B585B0B0
:1008F0000FF26C0C9CE8E01001A8A0E8E0101CA529
:100900002D68009500210022002300240020194DAD
:10091000696801F00C05F5B1042D02D0082D19D13C
:1009200001E0154819E001ADC1F38346AC5D01F467
:10093000803555B10F4D6D68C5F340451DF8052054
:100940000D4D6543B5FBF2F302E00C4D04FB05F3DE
:10095000184602E000BF084800BF00BF05B0F0BD68
:1009600002030405060708090A0B0C0D0E0F1010F0
:10097000010200000010024000127A0000093D0050
:10098000F8B504460CB90120F8BD207800F001004C
:10099000002878D0F848406800F00C0004280CD0FB
:1009A000F548406800F00C00082811D1F248406872
:1009B00000F48030B0F5803F0AD1EF48006800F4C1
:1009C000003000285FD0606800285CD10120DBE7A0
:1009D00000BF6068B0F5803F06D1E748006840F48A
:1009E0008030E549086028E0606858B9E24800684E
:1009F00020F48030E04908600846006820F4802038
:100A000008601AE06068B0F5A02F0BD1DA480068E2
:100A100040F48020D84908600846006840F48030DF
:100A200008600AE0D448006820F48030D2490860A9
:100A30000846006820F48020086000BF606888B124
:100A4000FFF7C8FD054606E0FFF7C4FD401B64281C
:100A500001D9032098E7C848006800F40030002856
:100A6000F2D010E0FFF7B6FD054606E0FFF7B2FD55
:100A7000401B642801D9032086E7BF48006800F4C2
:100A800000300028F2D1207800F00200022857D16F
:100A9000B948406800F00C0050B1B748406800F019
:100AA0000C00082818D1B448406800F4803098B988
:100AB000B148006800F0020020B12069012801D08F
:100AC000012061E7AC48006820F0F800616940EA65
:100AD000C100A949086033E02069E8B10120A749B5
:100AE0000860FFF777FD054606E0FFF773FD401B42
:100AF000022801D9032047E79F48006800F0020060
:100B00000028F2D09C48006820F0F800616940EAB3
:100B1000C1009949086013E0002098490860FFF778
:100B200059FD054606E0FFF755FD401B022801D997
:100B3000032029E79048006800F002000028F2D165
:100B4000207800F0080008282DD1A069B8B1012054
:100B50008B490860FFF73EFD054606E0FFF73AFDCA
:100B6000401B022801D903200EE78348406A00F0A9
:100B700002000028F2D0012000F0F8F913E0002074
:100B80007F490860FFF726FD054606E0FFF722FDD6
:100B9000401B022801D90320F6E67748406A00F09E
:100BA00002000028F2D1207800F00400042873D15C
:100BB00000277148C06900F0805070B900BF6E48CE
:100BC000C06940F080506C49C8610846C06900F0B7
:100BD0008050009000BF00BF01276A48006800F401
:100BE0008070B0B96748006840F48070654908605B
:100BF000FFF7F0FC054606E0FFF7ECFC401B64281D
:100C000001D90320C0E65F48006800F48070002826
:100C1000F2D000BFE068012806D15748006A40F0D2
:100C200001005549086227E0E06858B95248006A57
:100C300020F00100504908620846006A20F00400D4
:100C4000086219E0E06805280BD14B48006A40F0C3
:100C50000400494908620846006A40F00100086241
:100C60000AE04548006A20F001004349086208464E
:100C7000006A20F00400086200BFE068A0B1FFF73E
:100C8000A9FC054609E0FFF7A5FC401B41F28831AD
:100C9000884202D9032077E622E03748006A00F054
:100CA00002000028EFD012E0FFF794FC054608E0B0
:100CB000FFF790FC401B41F28831884201D90320A4
:100CC00062E62D48006A00F002000028F0D1012FF2
:100CD00005D12948C06920F080502749C86100BF6C
:100CE000E069C8B32448406800F00C00082860D0D0
:100CF000E069022848D1002020490866FFF76AFC15
:100D0000054606E0FFF766FC401B022801D90320D8
:100D10003AE61948006800F000700028F2D1206A15
:100D2000B0F5803F07D11448406820F40030A16836
:100D3000084311494860D4E9080108430E4949684D
:100D400021F4741108430C49486001200B490866DE
:100D5000FFF740FC054607E03DE0FFF73BFC401B8A
:100D6000022801D903200FE60348006800F0007054
:100D70000028F2D02FE000000010024000004242A4
:100D80008004424200700040002014490866FFF7CA
:100D900021FC054606E0FFF71DFC401B022801D997
:100DA0000320F1E50E48006800F000700028F2D141
:100DB00011E0E069012800D1E6E50948466806F43B
:100DC0008031206A814204D106F47011606A814248
:100DD00001D00120D8E50020D6E500000000424205
:100DE0000010024070B504462546681EB0F1807FB1
:100DF00001D301200FE0681E4FF0E02148610F2170
:100E00004FF0FF3000F08AF900204FF0E0218861B8
:100E100007200861002070BD10B504460CB9012000
:100E200010BDA06900B100E000BF94F8390028B9F6
:100E3000002084F83800204600F027F8242084F8A9
:100E400039002068C06820F400502168C86020463E
:100E500000F0A6F82068006920F49040216808613D
:100E60002068406920F02A00216848612068C06835
:100E700040F400502168C8600020E063202084F81E
:100E8000390084F83A000020CAE770472DE9F84F8E
:100E900004460E46174699464FF0000A94F839006A
:100EA00020285AD106B117B90120BDE8F88F00BF3C
:100EB00094F83800012801D10220F6E7012084F8D7
:100EC000380000BF0020E063212084F83900FFF7DC
:100ED00081FB8246A784E784A068B0F5805F04D1D7
:100EE000206910B90025B04602E035464FF00008F1
:100EF00000BF002084F8380000BF1BE053460022EA
:100F000080212046CDF8009000F0C8F808B10320F9
:100F1000CBE745B9B8F80000C0F308002168486085
:100F200008F1020803E02878216848606D1CE08C15
:100F3000401EE084E08C0028E0D15346002240218E
:100F40002046CDF8009000F0A9F808B10320ACE7E6
:100F5000202084F839000020A7E70220A5E700BF81
:100F6000FEE700BFFEE770477047000008B508497C
:100F70000968C9084FF47A72B1FBF2F1414300915C
:100F800000BF00BF00994A1E00920029F9D108BD98
:100F900000000020704710B5FFF722FB10BD0000D5
:100FA00070B504462168096921F44051E268114393
:100FB000226811612269A1681143626941EA020550
:100FC0002168C96841F20C62914329432268D160CB
:100FD0002168496921F44071A26911432268516175
:100FE0002D4A2168914202D1FFF770FC01E0FFF722
:100FF0005DFC00EBC00101EB001162689200B1FBE7
:10100000F2F100EBC00202EB001263689B00B2FB3E
:10101000F3F26423B2FBF3F202EBC20303EB02121E
:10102000A1EB8201322202EB01116422B1FBF2F149
:1010300001F0F00100EBC00202EB001263689B00BC
:10104000B2FBF3F26423B2FBF3F201EB021200EB0A
:10105000C00101EB001163689B00B1FBF3F100EBF1
:10106000C00303EB00136668B600B3FBF6F3642617
:10107000B3FBF6F303EBC30606EB0313A1EB83010B
:10108000322303EB01116423B1FBF3F101F00F01F3
:1010900011442268916070BD003801402DE9F04193
:1010A00004460D4617469846069E21E0701CF8B18E
:1010B0002EB1FFF78FFAA0EB0800B04218D92068D4
:1010C000C06820F4D0702168C8602068406920F0B2
:1010D000010021684861202084F8390084F83A0032
:1010E00000BF002084F8380000BF0320BDE8F08175
:1010F000206800682840A84201D1012000E00020BB
:10110000B842D3D00020F1E700BFFEE702480068F4
:10111000C0F30220704700000CED00E010B500287D
:1011200004DB0A07130E054A135406E00A07140EDF
:10113000034A00F00F031B1FD45410BD00E400E06D
:1011400018ED00E001490860704700001000002021
:1011500010B504464FF47A7104FB01F000F002F878
:1011600010BD000070B5034600224FF0E0267569FF
:101170000D4E366803FB06F44FF0E026B16910E02F
:101180004FF0E026B06988420BD0884202D20E1A96
:10119000324402E02E1A0E4432440146A24200D3E9
:1011A00000E0EDE700BF70BD1000002000B585B085
:1011B00000BF00BF1048806940F004000E498861FC
:1011C0000846806900F00400009000BF00BF00BF27
:1011D000881501900120029003900320049001A93A
:1011E0000648FFF751F800BF012211020348FFF73C
:1011F000EBF900BF05B000BD00100240000801403F
:101200001CB50EA103C9CDE90001FFF7F5F94FF4B4
:10121000E01000F019F84820FFF794FF00F048F8BC
:10122000FFF7C4FF09E06423052269460548FFF77C
:101230002DFE4FF4FA70FFF78BFFF4E748454C4C56
:101240004F0000001400002030B58FB00546012487
:10125000282105A8FEF7B2FF14216846FEF7AEFF6D
:1012600001200590000406900020079002200C90B9
:10127000C1030D910E9505A8FFF782FB04460CB142
:1012800000BFFEE70F200090022001900020029096
:101290004FF4806003900020049002216846FFF71D
:1012A00039FA04460CB100BFFEE70FB030BD0000B4
:1012B00000B585B000BF1F48806940F004001D499B
:1012C00088610846806900F00400009000BF00BFFC
:1012D00000BF0846806940F4804088610846806904
:1012E00000F48040009000BF00BF4815019002202C
:1012F00002900320049001A90F48FEF7C5FF4FF4A8
:10130000806001900020029001A90B48FEF7BCFF0D
:101310000A480B4908604FF4E13048600021084852
:101320008160C160016181610C214161FFF774FD41
:1013300005B000BD00100240000801400038014027
:10134000140000200000000000000000010203045F
:101350000607080900000000010203047C130008CE
:10136000000000201400000028010008901300086D
:1013700014000020A4040000440100080024F4002C
:10138000000000001000000001000000000000004C
:04000005080000ED02
:00000001FF
