:020000040800F2
:10000000C0B70220AD020008932A00087B28000830
:100010008F2A0008790900089130000800000000CC
:10002000000000000000000000000000972A000807
:100030007D09000800000000952A0008992A0008A0
:10004000C7020008C7020008C7020008C70200086C
:10005000C7020008C7020008C7020008C70200085C
:10006000C7020008C7020008C7020008C70200084C
:10007000C7020008C7020008C7020008C70200083C
:10008000C7020008C7020008C7020008C70200082C
:10009000C7020008C7020008C7020008C70200081C
:1000A000C7020008C7020008C7020008C70200080C
:1000B000C7020008C7020008B52A0008C7020008E6
:1000C000C7020008C7020008C7020008C7020008EC
:1000D000C702000841300008C7020008C702000834
:1000E000C7020008C7020008C7020008C7020008CC
:1000F000C7020008C7020008C7020008C7020008BC
:10010000C7020008C7020008C7020008C7020008AB
:10011000C7020008C7020008C7020008C70200089B
:10012000C7020008C7020008C7020008C70200088B
:10013000C7020008C7020008C7020008C70200087B
:10014000C7020008C7020008C7020008C70200086B
:10015000C7020008C7020008C7020008C70200085B
:10016000C7020008C7020008C7020008C70200084B
:10017000C7020008C7020008C7020008000000000C
:10018000C7020008C7020008C7020008C70200082B
:10019000C7020008C7020008C7020008C70200081B
:1001A000C7020008C7020008C702000800F002F8F2
:1001B00000F06DF80AA090E8000C82448344AAF194
:1001C0000107DA4501D100F062F8AFF2090EBAE892
:1001D0000F0013F0010F18BFFB1A43F0010318477B
:1001E00010D7000030D700000A444FF0000C10F880
:1001F000013B13F0070408BF10F8014B1D1108BFA5
:1002000010F8015B641E05D010F8016B641E01F844
:10021000016BF9D113F0080F1EBF10F8014BAD1C94
:100220000C1B09D16D1E58BF01F801CBFAD505E0B2
:1002300014F8016B01F8016B6D1EF9D59142D6D30C
:10024000704700000023002400250026103A28BF34
:1002500078C1FBD8520728BF30C148BF0B60704738
:10026000642900F02B81752900F02881782900F09D
:100270006181632900F02B83732900F03083002013
:1002800070471FB508F002FC1FBD10B510BD00F08F
:1002900041FB1146FFF7F5FF06F000FE00F05FFBA3
:1002A00003B4FFF7F2FF03BC02F017FF09488047D1
:1002B00009480047FEE7FEE7FEE7FEE7FEE7FEE748
:1002C000FEE7FEE7FEE7FEE704480549054A064B60
:1002D00070470000A12A0008AD010008C0AD02204F
:1002E000C0B70220C0AF0220C0AF0220704753EA5F
:1002F000020C00F069802DE9F04B4FF00006002B56
:100300001FBFB3FA83F503FA05F424FA05F65E403D
:1003100012BF1643B2FA82F502FA05F4C5F12005C0
:100320001EBF22FA05FC44EA0C04203556EA044CB0
:100330004FEA144418BF641C4FF000084FF0000946
:10034000904271EB030C39D3002919BFB1FA81F740
:1003500001FA07F6B0FA80F700FA07F6C7F12007AE
:100360001EBF20FA07FC46EA0C062037B6FBF4FC59
:10037000A7EB0507103F07F01F0BCBF120060CFA87
:100380000BFB2CFA06F644BFB3460026202FA4BF71
:100390005E464FF0000B5BEA060C08BF4FF0010B06
:1003A00019EB0B09ABFB027C48EB0608C01B06FBF4
:1003B00002CC0BFB03CC71EB0C01C1E70B460246F0
:1003C00041464846BDE8F08B13B54FF000004FF0B2
:1003D0000001AFF30080BDE81C4070470FB4044932
:1003E00010B503AA029800F07FFA10BC5DF814FB68
:1003F000100000200FB41CB5074B06AA7B446946C9
:100400000090059800F041FA0020694600F050FA8B
:100410001CBC5DF814FB0000B104000070B504467C
:1004200085690068C10601D5302600E02026C00796
:1004300007D070BDD4E9012130469047206A401CA6
:1004400020626D1EF6D570BD70B5044685690078D2
:10045000C00707D170BDD4E9012120209047206A50
:10046000401C20626D1EF6D570BD70B50C46054669
:10047000012A05D02878800600D5EA69002302E029
:10048000012305E05B1C934202D2E05C0028F9D115
:10049000A869E618C01AA861286A18442862284684
:1004A000FFF7BCFF04E0D5E9012114F8010B9047E8
:1004B000B442F8D32846FFF7C7FF70BD2DE9F041DD
:1004C0000646002410687529314616A510D0AFF3F2
:1004D0000080002802DA404213A507E031688A074D
:1004E00001D512A502E0490704D511A5012401E0B8
:1004F000AFF3008000210A2206F1240709E0B0FBD7
:10050000F2FCB0FBF2F302FB1C00303078541846CA
:10051000491C0028F3D123462A463046BDE8F04165
:1005200000F055B9000000002D0000002B00000075
:100530002000000070B504460D4621461068AFF358
:1005400000802188090502D50F4A7A4402E00E4A4C
:100550007A440E32002104F1240305E000F00F0676
:100560000009965D5E54491C0028F7D120780023CD
:10057000000704D5702D02D009B1022311322046A4
:10058000BDE8704000F023B9C6CC00002DE9F05F53
:10059000894604464FF0000ADFF874B1FB44C0F806
:1005A00020A02046E1688847002874D0252806D07E
:1005B000D4E901219047206A401C2062F1E700261F
:1005C0005F462046E16888472028054607DB312D35
:1005D00005D2781910F8200C08B10643F1E7B007EE
:1005E00001D526F00406C4F81CA00027C4F818A002
:1005F0002A2D09D0284602F069FD38B304EB87089C
:10060000303DC8F8185019E059F8041B204604EB97
:1006100087029161E1688847012F054618D1E0699A
:10062000002820DA26F020061DE0D8F8180000EB9C
:10063000800005EB40003038C8F818002046E1681B
:100640008847054602F042FD0028EED1012F0AD06E
:100650002E2D08D12046E16888477F1C0546022FD1
:1006600046F02006C4DBA069002803DA404246F0C9
:100670000106A061F00701D026F010066C2D0BD00A
:10068000682D09D04C2D39D06A2D35D0742D35D038
:100690007A2D33D016E038E0E1682F4620468847AF
:1006A000B842054609D16C2F26D04FF48060E1682E
:1006B000064320468847054604E06C2F1AD04FF4C5
:1006C000807006430DB3A5F14100192802D82035EA
:1006D00046F400664A462946204626604E46FFF705
:1006E000BFFD80B101280BD0F61D26F0070000F1F8
:1006F000080956E74020E4E78020D8E70020D6E745
:1007000006F104094DE7284652E7206ABDE8F09F4C
:100710009CCC000010B5203AC0F00B80B1E8185016
:10072000203AA0E81850B1E81850A0E81850BFF4DB
:10073000F5AF5FEA027C24BFB1E81850A0E818507A
:1007400044BF18C918C0BDE810405FEA827C24BFCE
:1007500051F8043B40F8043B08BF7047D20728BF5C
:1007600031F8023B48BF11F8012B28BF20F8023BAB
:1007700048BF00F8012B70474FF0000200B5134648
:1007800094469646203922BFA0E80C50A0E80C50B1
:10079000B1F12001BFF4F7AF090728BFA0E80C5062
:1007A00048BF0CC05DF804EB890028BF40F8042B5B
:1007B00008BF704748BF20F8022B11F0804F18BFC8
:1007C00000F8012B704770477047704770472DE95C
:1007D000F0470D4699469246044600F12408016808
:1007E000880604D5E06921F01001216000E00120B5
:1007F000A84201DD471B00E00027A1697A1902EB3E
:100800000900081AA0612078C00602D42046FFF72C
:1008100005FE002608E0D4E901211AF806009047F9
:10082000206A401C761C20624E45F4DB2078C0060E
:100830000AD52046FFF7F2FD06E0D4E90121302079
:100840009047206A401C2062381EA7F10107F4DCA3
:1008500007E0D4E9012118F805009047206A401C00
:100860002062281EA5F10105F3DC2046FFF7ECFD10
:100870002078000602D50220BDE8F0870120FBE7C2
:1008800001694A1C02610878704700B58FB0CDE954
:1008900001310021059105497944CDE90310114644
:1008A0006846FFF773FE0FB000BD0000E5FFFFFFD5
:1008B0000A6802F8010B0A60704710B5436913B16A
:1008C000AFF3008001E0FFF7D0FD012010BD1278EA
:1008D00000F124010A7000224A700122EDE711683C
:1008E0004FF0FF32E9E70000074B70B50D467B443F
:1008F000FFF7CBFF0446284600F008F810B14FF090
:10090000FF3070BD204670BD7F280000007B00F0E6
:1009100080007047754600F02BF8AE46050069462A
:10092000534620F00700854618B020B5FFF7CCFCF1
:10093000BDE820404FF000064FF000074FF00008E0
:100940004FF0000B21F00701AC46ACE8C009ACE861
:10095000C009ACE8C009ACE8C0098D46704710B5C5
:100960000446AFF300802046BDE81040FFF798BC76
:100970000048704760AD022000BFFEE770470000EE
:1009800070B50446B3F5804F13D1D1E9000540EAB4
:1009900005108D6840EA05208D6928438D8940EA5D
:1009A000054054F82250064E3540284344F82200B2
:1009B00003E06FF0704044F82200002070BD00009A
:1009C0000000F0CF70B50246086852F8200020F011
:1009D00001000E6842F826008868082801D14025E9
:1009E00000E00025486828438E683043CE683043D5
:1009F0000E6930434E693043CE6930430E6A30434E
:100A00004E6A30438E6A3043CE6A30430E6B40EA02
:100A1000060388690343486B0343C86B03430E4CCA
:100A200044F4806444F4801444F4E024086852F8E8
:100A30002000A04318430E6842F82600486BB0F52A
:100A4000801F07D1086828B1106820F480104E6B11
:100A500030431060002070BD7FFB080030B50346B6
:100A6000D1E9000540EA05108D6840EA05208D892E
:100A700040EA0545088A401E45EA0055087D801E6B
:100A800045EA00608D692843551C53F8255005F050
:100A900040452843551C43F82500186800F4801091
:100AA000B0F5801F0BD1586820F47004088A401EEE
:100AB00044EA0054586820F4700020435860002035
:100AC00030BD02460868B0B9D1E901031843CB68CC
:100AD00018430B6918434B6918438B691843CB695A
:100AE00018430B6A18434B6A184313686FF30E03DD
:100AF0001843106019E0D1E9070318434B6A184303
:100B0000136823F4F84318431060D1E90103184334
:100B1000CB6818430B6918434B6918438B6918431A
:100B200053686FF30E03184350600020704702466D
:100B3000506943F6FE73984340EA4100506100203B
:100B400070472DE9F04105460C4616460027D4E9CA
:100B500000010843A168491E40EA4110E16840EAEB
:100B6000412029696FF315010843286100F0E8F975
:100B700007460AE0701C40B126B100F0E1F9C01B45
:100B8000B04202D90320BDE8F081A86900F020003E
:100B90002028EFD00020F6E730B50346FAB9086800
:100BA000401E4C68641E40EA04148868401E44EAF3
:100BB0000024C868401E44EA0034088A401E44EA03
:100BC0000044888A401E44EA0054087E401E44EADD
:100BD00000609C6804F070442043986022E0C8687C
:100BE000401E0403888A401E44EA00509C680E4D53
:100BF0002C40204398600868401E4C68641E40EA00
:100C000004148868401E44EA0024088A401E44EA0E
:100C10000044087E401E44EA0060DC6804F0704432
:100C20002043D860002030BDFF0F0FFF70B5044691
:100C3000A56D00F085F9064694F83500022808D025
:100C40008020606500BF002084F8340000BF0120D0
:100C500070BD2068006820F01600216808602068D8
:100C6000406920F0800021684861206C08B9A06CC0
:100C700028B12068006820F008002168086020681A
:100C8000006820F001002168086010E000F058F9C9
:100C9000801B05280BD920206065032084F83500CF
:100CA00000BF002084F8340000BF0320D0E7206894
:100CB000006800F001000028E8D194F85C103F20A3
:100CC0008840A860012084F8350000BF002084F827
:100CD000340000BF00BFBBE7014691F83500022891
:100CE00003D08020486501207047052081F8350039
:100CF0000868006820F001000A6810600020F3E72F
:100D0000F8B502460B460025002400200021E0E053
:100D1000012606FA01F51E6806EA0504AC4274D104
:100D20001E7906F00306012E04D01E7906F0030694
:100D3000022E13D190684F000326BE40B0434F00EF
:100D4000DE68BE4030439060506801268E40B0435C
:100D50001E79C6F300168E40304350601E7906F0AF
:100D60000306032E09D0D0684F000326BE40B043CF
:100D70004F009E68BE403043D0601E7906F00306E7
:100D8000022E13D1CF0802F1200656F827004E0795
:100D9000F70E0F26BE40B0434F07FF0E1E69BE4040
:100DA0003043CF0802F1200646F8270010684F00B4
:100DB0000326BE40B0431E7906F003064F00BE4036
:100DC000304310605E6806F44036002E1DD000BF30
:100DD00000260096414E366846F480463F4F3E60FE
:100DE0003E46366806F48046009600BF00BF3C4E83
:100DF0008F0856F827008E07370F0F26BE40B043E6
:100E0000384EB24202D100262EE061E0364EB242A8
:100E100001D1012628E0354EB24201D1022623E05D
:100E2000334EB24201D103261EE0324EB24201D10E
:100E3000042619E0304EB24201D1052614E02F4EAF
:100E4000B24201D106260FE02D4EB24201D1072653
:100E50000AE02C4EB24201D1082605E02A4EB242E9
:100E600001D1092600E00A268F073F0FBE4030431C
:100E70001B4E8F0846F82700244E3068A0435E685A
:100E800006F4801606B12043204E3060361D3068CF
:100E9000A0435E6806F4001606B120431B4E361DC3
:100EA00030601A4E361F3068A0435E6806F4003684
:100EB00006B12043154E361F3060361F3068A04300
:100EC0005E6806F4803606B12043104E083E30605E
:100ED000491C1029FFF41CAFF8BD00004438024043
:100EE00008380140000002400004024000080240AF
:100EF000000C0240001002400014024000180240A2
:100F0000001C02400020024000240240083C014036
:100F1000024613690B400BB1012000E0002070472E
:100F200010B5426921EA020302EA010443EA0443DC
:100F3000836110BD0AB1816101E00B0483617047D8
:100F400001480068704700001C000020034800684A
:100F50000349097808440149086070471C000020D3
:100F60002400002010B50D48006840F400700B49C3
:100F700008600846006840F4806008600846006821
:100F800040F480700860052000F056FA0F2000F051
:100F900007F800F001FA002010BD0000003C0240FC
:100FA00070B504460E4800784FF47A71B1FBF0F04A
:100FB0000C490968B1FBF0F5284601F039F908B190
:100FC000012070BD102C07D200222146501E00F0D7
:100FD000F4F90548046001E00120F2E70020F0E7A1
:100FE000240000200C0000202000002070B50446E2
:100FF0000E46154600BF94F8A000012801D102203A
:1010000070BD012084F8A00000BF022084F8A10078
:1010100005EB850101EBC50204F1380101EB82000B
:1010200034223146FFF776FB2A463146204601F04E
:1010300026FC01202168486284F8A10000BF00203E
:1010400084F8A00000BF00BFDAE7000070B50446D6
:101050000CB9012070BD94F8A10028B9002084F8D3
:10106000A000204600F07EF8022084F8A10020684D
:10107000806920F0704021688861D4E9010108434B
:10108000E1680843216908432168896908432168A8
:101090008861206880683249084021688860A08A99
:1010A000050420688068A169294308432168886095
:1010B0002068C0682A4908402168C860A08B0504E0
:1010C0002068C068216A294308432168C8602068F5
:1010D00000692349084021680861A08C0504206844
:1010E0000069A16A294308432168086120684069B2
:1010F0001B49084021684861A08D050420684069AB
:10110000216B294308432168486194F835000502A2
:1011100094F8360006042068C06A00F07F40216819
:10112000C86246EA050094F8341008432168C96A89
:1011300008432168C8622068406B40F006002168BF
:1011400048632068806940F00100216888610020C0
:10115000C4F8A400012084F8A10000207AE7000070
:1011600000F800F010B586B0044600BF00200090E3
:101170004D48006840F080604B49086008460068B0
:1011800000F08060009000BF00BF00BF0020009012
:1011900045481438006840F4000043491439086099
:1011A0000846006800F40000009000BF00BF00BFC8
:1011B000002000900846006840F0020008600846E1
:1011C000006800F00200009000BF00BF00BF0020D8
:1011D00000900846006840F020000860084600685B
:1011E00000F02000009000BF00BF00BF0020009072
:1011F0000846006840F0400008600846006800F0BB
:101200004000009000BF00BF00BF002000900846D3
:10121000006840F0800008600846006800F0800028
:10122000009000BF00BF00BF00200090084600688B
:1012300040F4807008600846006800F480700090F8
:1012400000BF00BF202001900120029003900320E6
:10125000049001A91548FFF753FD4FF480600190F9
:101260000220029000200390032004900E2005909D
:1012700001A90F48FFF744FD4FF40C60019001A94C
:101280000C48FFF73DFD4FF47E40019001A90A484C
:10129000FFF736FD40F2F760019001A90748FFF71C
:1012A0002FFD06B010BD000044380240000402408B
:1012B0000014024000180240001C024000200240BE
:1012C0002DE9F04104460E461746984600BF94F8B3
:1012D000A000012802D10220BDE8F081012084F89D
:1012E000A00000BF022084F8A10008EB880000EBFA
:1012F000C80104F1380000EB81052E60A86A304473
:101300006860AF60E86A3844E86042462946204693
:1013100001F0B5FA01202168486284F8A10000BFFD
:10132000002084F8A00000BF00BFD5E72DE9F04100
:1013300004460E461746984600BF94F8A0000128C0
:1013400002D10220BDE8F081012084F8A00000BF96
:10135000022084F8A10008EB880000EBC80104F12A
:10136000380000EB8105286830446860A86838447C
:10137000E860AE62EF6242462946204601F07FFAFD
:1013800001202168486284F8A10000BF002084F891
:10139000A00000BF00BFD5E77047014608460028FF
:1013A00009DB00F01F0301229A4043099B0003F16F
:1013B000E023C3F8002100BF70472DE9F05F8046AD
:1013C0000D461646002701F065FE074639462A46B7
:1013D000334601F00700C0F1070ABAF1040F02D941
:1013E0004FF0040A01E0C0F1070AD14600F1040AF7
:1013F000BAF1070F02D24FF0000A01E0A0F1030A90
:10140000D4464FF0010A0AFA09FAAAF1010A0AEAD7
:10141000020A0AFA0CFA4FF0010B0BFA0CFBABF1C3
:10142000010B0BEA030B4AEA0B042146404601F08C
:1014300039FEBDE8F09F000000BF00F00702064B38
:1014400019684FF6FF031940044B0B4343EA02218E
:10145000014B196000BF70470CED00E00000FA0579
:1014600038B5002400BF002000901D48006840F0FF
:1014700080501B4908600846006800F080500090CA
:1014800000BF00BF012017490864FFF759FD04465B
:1014900007E0FFF755FD001BB0F57A7F01D9032067
:1014A00038BD1148406800F48030B0F5803FF0D17D
:1014B00001200C494864FFF743FD044607E0FFF7AD
:1014C0003FFD001BB0F57A7F01D90320E8E706480D
:1014D000406800F40030B0F5003FF0D10020DFE7B5
:1014E0004038024000000E4200700040F8B504464B
:1014F00000250026207800F0010048B9207800F08F
:101500000200022804D0207800F04000402862D178
:101510000020B1498866FFF713FD054606E0FFF796
:101520000FFD401B022801D90320F8BDAB4800681D
:10153000C0F3C0600028F2D1207800F0010038B17B
:1015400060688101207A41EA0070A4498431086012
:10155000207800F00200022819D1A04884300068E9
:10156000C0F3027660688101207B41EA006040EAB6
:1015700006709A498431086098488C30006820F0E1
:101580001F00E169491E084394498C3108602078A6
:1015900000F0400040280AD160688101207B41EAC8
:1015A0000061207A41EA00708C4984310860012092
:1015B00089498866FFF7C4FC054606E0FFF7C0FCD2
:1015C000401B022801D90320AFE784480068C0F31C
:1015D000C0600028F2D0207800F00400042804D075
:1015E000207800F00800082863D100207A490867B5
:1015F000FFF7A6FC054606E0FFF7A2FC401B022809
:1016000001D9032091E775480068C0F340700028B5
:10161000F2D1207800F00400042819D16F488830F6
:101620000068C0F3027620698101207D41EA0060F4
:1016300040EA0670694988310860081D006820F496
:10164000F851206A401E41EA002064498C3108604C
:10165000207800F00800082817D16048883000681A
:10166000C0F303662069800140EA0661207E41EAFA
:1016700000705A4988310860081D006820F4403025
:10168000616A084355498C31086001205249086756
:10169000FFF756FC054606E0FFF752FC401B022808
:1016A00001D9032041E74D480068C0F3407000288D
:1016B000F2D0207800F0200020287DD100BF00204B
:1016C000009046484030006840F080504349403127
:1016D00008600846006800F08050009000BF00BF1E
:1016E0003F48006840F480703D490860FFF728FCDF
:1016F000054606E0FFF724FC401B022801D9032021
:1017000013E73748006800F480700028F2D03348AF
:101710007030006800F440764EB3208D00F44070C5
:10172000B04224D02D487030006820F4407601206B
:101730002C49086000200860284870300660006866
:1017400000F0010098B1FFF7FBFB054608E0FFF74A
:10175000F7FB401B41F28831884201D90320E4E6BF
:101760001E4870300068C0F340000028EFD000BF72
:10177000208D00F44070B0F5407F0CD11748083040
:10178000006820F4F810184AA16A11400843134970
:101790000831086007E011480830006820F4F810AC
:1017A0000E49083108600D4870300068218DC1F382
:1017B0000B010843094900E002E07031086000BFF6
:1017C000207800F01000102803D194F82C0007496D
:1017D00008600020A9E600000000474200380240EF
:1017E00000700040400E4742FFFCFF0FE0114742EF
:1017F00070B504460D460CB9012070BD584800680C
:1018000000F00F00A84209D255490D700846006843
:1018100000F00F00A84201D00120EEE7207800F090
:10182000020002281DD1207800F00400042805D110
:101830004C48006840F4E0504A490860207800F0C5
:101840000800082805D14748006840F46040454931
:1018500008604448006820F0F000A168084341494E
:101860000860207800F00100A8B36068012807D163
:101870003C4808380068C0F34040B8B90120BCE7D4
:101880006068022802D06068032807D1354808380C
:101890000068C0F3406048B90120AEE7314808381D
:1018A0000068C0F3400008B90120A6E72D48006891
:1018B00020F00300616808432A490860FFF740FBF5
:1018C000064609E0FFF73CFB801B41F28831884265
:1018D00002D9032091E707E02248006800F00C00DD
:1018E0006168B0EB810FEDD11D48006800F00F007A
:1018F000A84209D91A490D700846006800F00F0087
:10190000A84201D0012078E7207800F004000428E4
:1019100007D11448006820F4E050E16808431149F9
:101920000860207800F00800082808D10D480068F9
:1019300020F46040216940EAC1000A49086000F0D3
:101940003FF808490968C1F30311074A515CC840D0
:101950000649086006480068FFF722FB00204CE7B4
:10196000003C024008380240968A00080C00002023
:101970002000002001480068704700000C00002093
:1019800000B5FFF7F7FF04490968C1F38221034A54
:10199000515CC84000BD000008380240A68A00081B
:1019A00000B5FFF7E7FF04490968C1F34231034A74
:1019B000515CC84000BD000008380240A68A0008FB
:1019C0002DE9F047002400250026A146254800689F
:1019D00000F00C0020B1042805D008283AD105E019
:1019E000DFF8849039E0DFF8849036E01D48001F6E
:1019F000006800F03F041B48001F006800F48000EE
:101A000078B11A481749091F0968C1F38811A0FB6A
:101A100001700146224600233846FEF768FC054661
:101A20000EE011480F49091F0968C1F38811A0FB96
:101A300001700146224600233846FEF758FC054651
:101A40000848001F0068C0F30140401C4600B5FB79
:101A5000F6F902E0DFF8109000BF00BF4846BDE88D
:101A6000F0870000083802400024F40040787D012F
:101A7000F8B504460CB90120F8BD207800F001004B
:101A8000002874D0F948006800F00C0004280DD03C
:101A9000F648006800F00C00082813D1F348001F36
:101AA000006800F48000B0F5800F0BD1EF480838D3
:101AB0000068C0F34040002859D06068002856D123
:101AC0000120D9E700BF6068B0F5803F08D1E74842
:101AD0000838006840F48030E449083908601EE0A6
:101AE0006068B0F5A02F0DD1E0480838006840F4D8
:101AF0008020DE49083908600846006840F48030DC
:101B000008600CE0D9480838006820F48030D749D4
:101B1000083908600846006820F48020086000BF8B
:101B2000606890B1FFF70CFA054606E0FFF708FA87
:101B3000401B642801D903209EE7CC480838006880
:101B4000C0F340400028F1D011E0FFF7F9F9054655
:101B500006E0FFF7F5F9401B642801D903208BE765
:101B6000C24808380068C0F340400028F1D120780E
:101B700000F0020002285FD1BC48006800F00C00B1
:101B800058B1BA48006800F00C0008281CD1B748CA
:101B9000001F006800F48000B0B9B448083800683D
:101BA000C0F3400020B1E068012801D0012063E7C4
:101BB000AE480838006820F0F800216940EAC1000A
:101BC000AA490839086037E0E06800B30120A84955
:101BD0000860FFF7B5F9054606E0FFF7B1F9401BCD
:101BE000022801D9032047E7A04808380068C0F35D
:101BF00040000028F1D09D480838006820F0F80027
:101C0000216940EAC10099490839086014E00020C0
:101C100097490860FFF794F9054606E0FFF790F949
:101C2000401B022801D9032026E7904808380068A5
:101C3000C0F340000028F1D1207800F00800082807
:101C40002CD16069A8B101208A490860FFF778F9B2
:101C5000054606E0FFF774F9401B022801D903206E
:101C60000AE782486C300068C0F340000028F1D0D9
:101C700014E000207F490860FFF762F9054606E09E
:101C8000FFF75EF9401B022801D90320F4E67748EC
:101C90006C300068C0F340000028F1D1207800F0DB
:101CA0000400042870D1002770483830006800F024
:101CB000805090B900BF002000906C483830006818
:101CC00040F080506949383108600846006800F0EB
:101CD0008050009000BF00BF01276748006800F4F3
:101CE0008070B0B96448006840F480706249086050
:101CF000FFF726F9054606E0FFF722F9401B022808
:101D000001D90320B8E65C48006800F48070002820
:101D1000F2D000BFA068012808D15448683000689C
:101D200040F001005149683108601DE0A0680528B5
:101D30000DD14E486830006840F004004B496831CE
:101D400008600846006840F0010008600CE0474861
:101D50006830006820F00100444968310860084696
:101D6000006820F00400086000BFA068A8B1FFF779
:101D7000E7F8054609E0FFF7E3F8401B41F2883138
:101D8000884202D9032077E626E0384868300068A8
:101D9000C0F340000028EED013E0FFF7D1F805466D
:101DA00008E0FFF7CDF8401B41F28831884201D9A5
:101DB000032061E62D4868300068C0F34000002829
:101DC000EFD1012F07D129483830006820F080502A
:101DD00026493831086000BFA069002845D0234853
:101DE000006800F00C0008285DD0A069022845D1E9
:101DF00000201F490866FFF7A3F8054606E0FFF735
:101E00009FF8401B022801D9032035E617480838FF
:101E10000068C0F340600028F1D1D4E9070108430D
:101E2000616A40EA81110122A06AC2EB500041EAD6
:101E300000412C20005D41EA00600C49091F086048
:101E400001200B490866FFF77BF8054606E0FFF71F
:101E500077F8401B022801D903200DE60348083813
:101E60000068C0F340600028F1D049E00838024023
:101E700000004742800E4742007000400020214988
:101E80000866FFF75DF8054606E0FFF759F8401BC6
:101E9000022801D90320EFE51B480068C0F3406029
:101EA0000028F2D12CE0A069012800D1E4E5164811
:101EB000001D0668A069012820D006F48001E069B1
:101EC00081421BD106F03F01206A814216D147F6BC
:101ED000C0703040616AB0EB811F0FD106F4403111
:101EE0000122A06AC2EB5000B1EB004F06D106F010
:101EF00070612C20005DB1EB006F01D00120BBE5CB
:101F00000020B9E5000047420038024070B50446A1
:101F10000D460CB9012070BD94F82C0028B90020A2
:101F200084F82D00204600F011F8022084F82C00DF
:101F3000211D2068FEF7C5FD2946D4E90002FEF701
:101F40002BFE012084F82C000020E4E710B586B0B9
:101F5000044600BF002000904348006840F00100A4
:101F6000414908600846006800F00100009000BF89
:101F700000BF00BF002000903B480838006840F0D8
:101F800004003949083908600846006800F0040078
:101F9000009000BF00BF00BF00200090084600680E
:101FA00040F0080008600846006800F00800009053
:101FB00000BF00BF00BF002000900846006840F04E
:101FC000100008600846006800F01000009000BF94
:101FD00000BF00BF002000900846006840F02000CD
:101FE00008600846006800F02000009000BF00BFB5
:101FF00000BF002000900846006840F040000860E4
:102000000846006800F04000009000BF00BF0D20AF
:1020100001900220029001200390032004900C20E4
:10202000059001A91148FEF76BFE4CF20370019078
:1020300001A90F48FEF764FE4FF68370019001A9D5
:102040000C48FEF75DFE4FF63F00019001A90A48DB
:10205000FEF756FE48F23710019001A90748FEF737
:102060004FFE06B010BD00003838024000080240A4
:10207000000C024000100240001402400018024010
:1020800070B504460D4694F82C00022800D170BDAE
:1020900094F82C0001280AD1022084F82C0029464B
:1020A0002068FEF744FD012084F82C0001E00120A7
:1020B000EDE70020EBE72DE9F04104460E46174618
:1020C00094F82C50022D02D10220BDE8F081012DA0
:1020D00001D0052D12D1022084F82C003A46314659
:1020E0002068FEF72EFD3068022803D1052084F811
:1020F0002C0005E0012084F82C0001E00120E4E739
:102100000020E2E770B504460E4615460CB90120E2
:1021100070BD94F8490028B9002084F84800204692
:1021200000F020F804F108012068FEF74BFC31466E
:10213000A2682068FEF792FC2946236BD4E90102CD
:10214000FEF71EFCA168206850F8210040F0010055
:10215000A268216841F82200012084F8490000208B
:10216000D6E7000010B586B0044600BF00200090FE
:102170002248006840F001002049086008460068D5
:1021800000F00100009000BF00BF00BF00200090E1
:102190001A480838006840F00800184908390860F3
:1021A0000846006800F00800009000BF00BF00BFB4
:1021B000002000900846006840F0100008600846C3
:1021C000006800F01000009000BF00BF4EF2B37036
:1021D00001900220029001200390022004900C2024
:1021E000059001A90648FEF78BFD4FF6807001901F
:1021F00001A90448FEF784FD06B010BD383802403E
:10220000000C024000100240042808D14FF0E021E9
:10221000096941F004014FF0E022116107E04FF03D
:10222000E021096921F004014FF0E02211617047BB
:1022300070B504462546681EB0F1807F01D30120A9
:102240000FE0681E4FF0E02148610F214FF0FF3092
:1022500000F028FF00204FF0E0218861072008618E
:10226000002070BD10B504460CB9012010BD94F8D3
:102270003D0028B9002084F83C00204600F025F8F5
:10228000022084F83D00211D206800F035FC01206B
:1022900084F8460000BF84F83E0001213F2001552C
:1022A000402001554120015500BF00BF012084F8A6
:1022B000420043200155442001554520015500BFEF
:1022C000012084F83D000020D0E77047014691F8D6
:1022D0003D00012801D001207047022081F83D0017
:1022E0000868C06840F001000B68D8601A4B0868A5
:1022F00098421BD00868B0F1804F17D0174B086880
:10230000984213D0164B086898420FD0154B0868B6
:1023100098420BD0144B0868984207D0134B0868BA
:10232000984203D0124B086898420CD10868806824
:1023300000F00702062A0CD00868006840F001008F
:102340000B68186005E00868006840F001000B6841
:1023500018600020C0E700000000014000040040B9
:1023600000080040000C0040000401400040014013
:10237000001800407047704701460022002391F882
:102380003D2091F83E3042EA030070472DE9F84FB6
:102390000446206805682068C668206847694FF0D1
:1023A0000009CA4605F00F09B9F1000F0AD105F07E
:1023B000200038B106F0200020B1204600F058FC83
:1023C000BDE8F88FB9F1000F7CD007F0010018B913
:1023D00006F49070002875D005F0010030B106F4C5
:1023E000807018B1206C40F00100206405F00400FA
:1023F00030B107F0010018B1206C40F002002064F9
:1024000005F0020030B107F0010018B1206C40F077
:102410000400206405F0080048B106F0200010B95F
:1024200007F0010018B1206C40F008002064206C17
:10243000002846D005F0200028B106F0200010B199
:10244000204600F015FC20684069C0F3801A206C1B
:1024500000F0080010B9BAF1000F2DD0204600F0AE
:10246000C1FB2068406900F04000402820D100BF37
:1024700000BF2168143151E8001F21F0400021689D
:10248000143141E80002002AF3D100BFA06B50B123
:102490007548A16B0865A06BFEF71EFC88B1A06BA8
:1024A000016D88470DE02046FFF765FF09E009E070
:1024B0002046FFF760FF04E02046FFF75CFF0020A6
:1024C00020647DE7206B012876D105F010000028FC
:1024D00072D006F010000028FAD000BF0020009053
:1024E00020680068009020684068009000BF00BF2E
:1024F0002068406900F0400040285ED1A06B006871
:1025000040681FFA80F8B8F1000F54D0A08D404504
:1025100051DDA4F82E80A06BC069B0F5807F43D058
:1025200000BF00BF21680C3151E8001F21F480700A
:1025300021680C3141E80002002AF3D100BF00BF3E
:1025400000BF2168143151E8001F21F0010021680B
:10255000143141E80002002AF3D100BF00BF00BFE0
:102560002168143151E8001F21F040002168143126
:1025700041E80002002AF3D100BF202084F83E0089
:102580000020206300BF00BF21680C3151E8001F0C
:1025900021F0100021680C3141E80002002AF3D13B
:1025A00000BFA06BFEF742FBA08DE28D801A81B2C6
:1025B0002046FFF7DFFE03E740E0A08DE18D401AE3
:1025C0001FFA80F8E08DC0B3B8F1000F35D000BF1E
:1025D00000BF21680C3151E8001F21F49070216880
:1025E0000C3141E80002002AF3D100BF00BF00BF58
:1025F0002168143151E8001F21F0010021681431D5
:1026000041E80002002AF3D100BF202084F83E00F8
:102610000020206300BF00BF21680C3151E8001F7B
:1026200021F0100021680C3141E80002002AF3D1AA
:1026300000BF41462046FFF79DFEC1E605F0800041
:1026400030B106F0800018B1204600F0C8FCB7E6B3
:1026500005F0400030B106F0400018B1204600F00F
:10266000F7FAADE600BFABE6D12B000810B5044683
:102670000CB9012010BDA06900B100E000BF94F8C2
:102680003D0028B9002084F83C00204600F028F8DE
:10269000242084F83D002068C06820F400502168A0
:1026A000C860204600F060FB2068006920F490407C
:1026B000216808612068406920F02A00216848618B
:1026C0002068C06840F400502168C8600020206481
:1026D000202084F83D0084F83E000020CAE7000076
:1026E00010B586B004462E492068884255D100BFF7
:1026F00000BF002000902B48006840F010002949DE
:1027000008600846006800F01000009000BF00BF9D
:1027100000BF00BF00BF00200090224814380068AE
:1027200040F001001F49143908600846006800F0B5
:102730000100009000BF00BF00BF00BF00BF00202D
:1027400000900846006840F00100086008460068F4
:1027500000F00100009000BF00BF00BF48150190CD
:10276000022002900120039002200490072005908F
:1027700001A90D48FEF7C4FA4FF4806001900720CC
:10278000059001A90848FEF7BBFA2520FEF705FED3
:10279000032211462520FEF710FE06B010BD0000F2
:1027A00000100140443802400000024070B5044669
:1027B0000D46164694F83E00202816D105B10EB9F4
:1027C000012070BD00BF94F83C00012801D1022017
:1027D000F7E7012084F83C0000BF00202063324668
:1027E0002946204600F0D6FBEBE70220E9E700008F
:1027F0001D4A0168914236D11C49098801F4004103
:1028000089BB1A49098801F4804171B118490978D6
:102810000A2903D00021154A118024E013490988B0
:1028200041F40041114A11801DE0114909780D2938
:1028300006D10E49098841F480410C4A118012E00A
:102840000B490978094A1288C2F30D02094B9954C1
:1028500006490988491C054A118011460988C7297B
:1028600001DD00211180704700100140140000209C
:102870001600002060020020704700BFFEE7F0B5A0
:102880008E880768FF68C7F30B473E443304066829
:102890008436802707FB0266766806F47047066870
:1028A00084364FF0800C0CFB026677600E68076878
:1028B000FF68C7F30B473E44761C1E430768843706
:1028C0000CFB02777E608E890768FF68C7F30A07F2
:1028D0003E44330406688436802707FB0266B668E8
:1028E00006F47047066884360CFB0266B7608E6893
:1028F0000768FF68C7F30A073E44761C46EA0307E9
:10290000066884360CFB0266B7600668843680274A
:1029100007FB0266366926F00707066884360CFB5B
:10292000026637610F69066884360CFB0266376100
:102930003126765C33023226765C34040E7E350610
:1029400006688436802707FB0266B669002706689A
:1029500084360CFB0266B76191F830601E43264353
:1029600046EA0507066884360CFB0266B76106680E
:102970008436802707FB0266766926F0FF07066823
:1029800084360CFB026677614F69066884360CFB5F
:102990000266776106688436802707FB0266F6695F
:1029A00040F20777BE43076884370CFB0277FE616D
:1029B000D1E907763743066884360CFB0266F76177
:1029C00006688436802707FB0266B66A0027066819
:1029D00084360CFB0266B7624F6A066884360CFBCD
:1029E0000266B7620E690EB9042313E00E69012E68
:1029F00001D103230EE00E69042E08D00E69022EC9
:102A000005D00E69032E02D00E69072E01D10223D4
:102A100000E0012306688436802707FB0266F66A19
:102A200006F0E027066884364FF0800C0CFB026647
:102A3000F762D1E90076F61B5E43F61C0F8D5F430B
:102A400046EA0747066884360CFB0266F7620668AA
:102A50008436802707FB0266366BF70AFF0206689A
:102A600084360CFB02663763CF6A066884360CFB3B
:102A70000266376306688436D701F65946F00107C7
:102A8000066884364FEAC21C46F80C70F0BD00BFE1
:102A9000FEE770477047704710B5FEF757FA10BD54
:102AA0000348006840F47000014908607047000066
:102AB00088ED00E010B50E480068C06800F0010025
:102AC00078B10C49086980470020094909684862C3
:102AD00000BF642006490968C86264210448C160D7
:102AE00000BF6FF0010002490968086110BD0000D5
:102AF000080500204801002010B50268294B9842C3
:102B00000ED0B0F1804F0BD0274B984208D0274B06
:102B1000984205D0264B984202D0264B984203D1CA
:102B200022F070024B681A431E4B984220D0B0F13D
:102B3000804F1DD01C4B98421AD01C4B984217D086
:102B40001B4B984214D01B4B984211D01A4B984201
:102B50000ED01A4B98420BD0194B984208D0194B03
:102B6000984205D0184B984202D0184B984203D196
:102B700022F44072CB681A4322F080034C6943EA86
:102B8000040202608B68C3620B688362054B984243
:102B900002D0084B984201D10B69036301234361C2
:102BA00010BD00000000014000040040000800408B
:102BB000000C00400004014000400140004401407E
:102BC0000048014000180040001C00400020004068
:102BD00070B50546AC6B0020E085E0842046FFF729
:102BE000CAFB70BD00BF00BF02680C3252E8002F64
:102BF00022F4907102680C3242E80013002BF3D1EA
:102C000000BF00BF00BF0268143252E8002F22F05C
:102C100001010268143242E80013002BF3D100BF17
:102C2000016B01290ED100BF00BF02680C3252E8CF
:102C3000002F22F0100102680C3242E80013002B32
:102C4000F3D100BF202180F83E10002101637047BE
:102C500010B504462068C06820F040002168C860B4
:102C6000202084F83D002046FFF706FE002010BD1E
:102C7000F8B5044694F83E00222873D1A068B0F558
:102C8000805F0CD1206950B90025A66A2068406891
:102C9000C0F308003080A06A801CA06215E0A56A1D
:102CA0000026A068B0F5805F03D0A06828B920692D
:102CB00018B920684068287004E02068406800F077
:102CC0007F002870A06A401CA062E08D401E80B288
:102CD000E085002844D12068C06820F020002168E9
:102CE000C8602068C06820F480702168C8602068CF
:102CF000406920F0010021684861202084F83E00EE
:102D0000206B012826D10020206300BF00BF21686E
:102D10000C3151E8001F21F0100021680C3141E80E
:102D20000002002AF3D100BF2068006800F0100004
:102D300010280AD100BF0020009020680068009091
:102D400020684068009000BF00BFA18D2046FFF7BB
:102D500011FB02E02046FFF74BFD0020F8BD01E02B
:102D60000020FBE70220F9E72DE9F84F0446206830
:102D7000006920F44050E168084321680861216936
:102D8000A068084361690843E1690843009020682E
:102D9000C06849F20C618843009908432168C86003
:102DA0002068406920F44070A169084321684861A7
:102DB00076492068884203D075492068884203D14B
:102DC000FEF7EEFD814602E0FEF7DAFD8146E0699E
:102DD000B0F5004F6CD102206168A0FB01500346A2
:102DE0001920A9FB007001462A463846FDF77FFAF4
:102DF0006421B0FBF1F04FEA001A02206168A0FBE9
:102E000001510B461920A9FB00712A463846FDF7EF
:102E10006EFA834602206168A0FB01500346192028
:102E2000A9FB00712A463846FDF761FA6421B0FB20
:102E3000F1F000EBC00101EB0010ABEB80003221A0
:102E400001EBC0006421B0FBF1F000F0F8000AEBE8
:102E5000400A02206168A0FB015003461920A9FB2B
:102E6000007001462A463846FDF741FA83460220A3
:102E70006168A0FB015003461920A9FB00712A4696
:102E80003846FDF734FA6421B0FBF1F000EBC001E5
:102E900001EB0010ABEB8000322101EBC00064219C
:102EA000B0FBF1F000F007005044216888606AE050
:102EB00004206168A0FB015003461920A9FB0070A3
:102EC00001462A463846FDF712FA82460420616818
:102ED000A0FB015003461920A9FB007001462A46B9
:102EE0003846FDF704FA6421B0FBF1F000EBC001B5
:102EF00001EB0010AAEB8000322101EB00106421ED
:102F0000B0FBF1F000F0F00A04206168A0FB017052
:102F100003461920A9FB00513A462846FDF7E7F978
:102F20006421B0FBF1F00AEB001A04206168A0FBF9
:102F300001510B461920A9FB00712A463846FDF7BE
:102F4000D6F9834604206168A0FB0150034619208E
:102F5000A9FB007001462A463846FDF7C8F96421EE
:102F6000B0FBF1F000EBC00101EB0010ABEB800017
:102F7000322101EB00106421B0FBF1F000F00F00F2
:102F8000504421688860BDE8F88F000000100140BF
:102F90000014014010B5034699629A85DA85002035
:102FA0001864222083F83E0000BF002083F83C0014
:102FB00000BF186928B11868C06840F480701C68A8
:102FC000E0601868406940F001001C6860611868A2
:102FD000C06840F020001C68E060002010BD014681
:102FE00091F83D00212828D18868B0F5805F0BD189
:102FF000086948B90A6A1088C0F308000B6858606D
:10300000086A801C086205E00B6A581C0862187880
:103010000B685860C88C401E80B2C88458B90868D4
:10302000C06820F080000B68D8600868C06840F075
:1030300040000B68D860002070470220FCE70000C9
:1030400070B500240F4D1048FFF7A0F900BF03E052
:10305000641CAC4200D904E00B48FFF78DF920282E
:10306000F6D100BF002403E0641CAC4200D906E0A6
:10307000012206490448FFF799FB0028F4D100BF5C
:1030800070BD0000FFFF0100280300201600002093
:1030900000BFFEE702480068C0F30220704700004E
:1030A0000CED00E010B5002804DB0A07130E054AFA
:1030B000135406E00A07140E034A00F00F031B1F07
:1030C000D45410BD00E400E018ED00E030380A28C8
:1030D00001D2012070470020704700BF70470000F8
:1030E00010B504460420FFF78FF80148046010BDB6
:1030F0001800002070B50446412094FBF0F594FBC5
:10310000F0F100FB114604E04FF6E85000F00CF837
:103110006D1E002DF8D12EB14FF47A7106FB01F02F
:1031200000F002F870BD000070B5034600224FF0B9
:10313000E02675690D4E366803FB06F44FF0E02675
:10314000B16910E04FF0E026B06988420BD08842A8
:1031500002D20E1A324402E02E1A0E4432440146C4
:10316000A24200D300E0EDE700BF70BD18000020D0
:1031700000BF054A126802F04002002AF9D0C2B22C
:10318000014B5A60704700000010014000B587B045
:1031900000BF00BF002001903948006840F0800067
:1031A000374908600846006800F08000019000BFC1
:1031B00000BF00BF00BF00BF0020019008460068AC
:1031C00040F0800008600846006800F08000019030
:1031D00000BF00BF00BF00BF00BF00200190084635
:1031E000006840F0040008600846006800F0040031
:1031F000019000BF00BF00BF00BF00BF00200190D2
:103200000846006840F0010008600846006800F0C9
:103210000100019000BF00BF00BF08200290002005
:103220000390012004900220059002A91548FDF7A3
:1032300067FD0420029000200390012004900220EA
:10324000059002A90F48FDF75BFD4FF40050029076
:1032500000200390012004900220059002A90A4852
:10326000FDF74EFD01200290002003900220049003
:10327000059002A90548FDF743FD07B000BD000019
:1032800030380240001C02400008024000000240AA
:1032900070B50446002514B101202C4908702B4854
:1032A0000078002836D008212948FDF731FE80B18A
:1032B00004212748FDF72CFE58B14FF40051254852
:1032C000FDF726FE28B101212348FDF721FE012844
:1032D00020D10A20FFF70EFF00201C4908700821AA
:1032E0001B48FDF715FE00B9012504211848FDF71C
:1032F0000FFE00B902254FF400511648FDF708FEF5
:1033000000B9032501211448FDF702FE01281BD155
:10331000042519E008210E48FDF7FAFD012813D114
:1033200004210B48FDF7F4FD01280DD141030948A4
:10333000FDF7EEFD012807D101210748FDF7E8FD63
:1033400010B9012001490870284670BD30000020E6
:10335000001C0240000802400000024070B5044614
:1033600000260D4805880D48006818B1204603F076
:10337000FBF90FE00848408845430021084602F069
:103380003BFF03F095F9002602E005480480761C17
:10339000AE42FAD370BD0000BC030020B40400208C
:1033A0000000086010B50446504884715048006819
:1033B00050B1204603F0FEF94D48C08A4B490880C1
:1033C0004B48008B488010BD002C45D1F020474968
:1033D00008804FF4A07048800846808845F210515C
:1033E000884210D14FF43050404908814FF42850A2
:1033F00048814FF42C5088814FF4F07008804FF4CE
:10340000487048801AE03948808841F66311884244
:103410000DD12C20354908812B2048812A20888114
:103420004FF4F07008804FF44870488006E02C207C
:103430002E4908812A2048812B2088812B488088AA
:1034400045F2103188424CD14FF4A07027490880D2
:103450004FF4F070488044E04FF4A0702349088096
:10346000F02048800846808845F21051884210D1EB
:103470004FF430501D4908814FF4285048814FF4D3
:103480002C5088814FF4487008804FF4F0704880C9
:103490001AE01648808841F6631188420DD12C202D
:1034A000124908812A2048812B2088814FF44870D6
:1034B00008804FF4F070488006E02C200B4908810A
:1034C0002A2048812B2088810848808845F21031C5
:1034D000884206D14FF4F070044908804FF4A07080
:1034E0004880002002F070FD00BF6CE7BC030020A4
:1034F000B40400202DE9F04706460F4690469A4650
:10350000002445460320A0EB480944E07A1B91B211
:10351000321990B2524600F099F83A1B91B27219E2
:1035200090B2524600F092F83A1991B2721990B2E4
:10353000524600F08BF87A1991B2321990B2524685
:1035400000F084F87A1991B2321B90B2524600F022
:103550007DF83A1991B2721B90B2524600F076F89B
:103560007A1B91B2321B90B2524600F06FF83A1BB0
:1035700091B2721B90B2524600F068F8641CB9F127
:10358000000F03DAA000801D814404E0601B80006E
:103590000A3081446D1EAC42B8DDBDE8F0872DE9EC
:1035A000FF4F85B081468A460020039083460798E6
:1035B000A0EB09050898A0EB0A06CDF80890CDF815
:1035C00004A0002D01DD012705E00DB9002702E070
:1035D0004FF0FF376D42002E02DD4FF0010806E08C
:1035E00016B94FF0000802E04FF0FF387642B542BE
:1035F00001DD2C4600E03446002004901EE0019AD4
:1036000091B2029A90B2129A00F020F803982844DE
:103610000390B3440398A04205DD0398001B039078
:10362000029838440290A34504DDABEB040B0198EB
:10363000404401900498401C80B20490611C04989E
:103640008842DCDD09B0BDE8F08F000070B50546AA
:103650000E4614460848006828B1224631462846DE
:1036600003F0BEF807E03146284602F0C5FD03F03E
:103670001FF802490C8070BDB404002000000860EF
:103680002DE9F84305460E4617469846089C3346F2
:103690003A46314628460094FFF781FF43462A46C2
:1036A000314628460094FFF77AFF43463A464146A2
:1036B00028460094FFF773FF43463A4631463846A2
:1036C0000094FFF76CFFBDE8F88310B5CF2002F03F
:1036D000E3FF002002F0D4FFC12002F0D1FF302030
:1036E00002F0CEFFED2002F0D7FF642002F0C8FF09
:1036F000032002F0C5FF122002F0C2FF812002F079
:10370000BFFFE82002F0C8FF852002F0B9FF1020BB
:1037100002F0B6FF7A2002F0B3FFCB2002F0BCFF2C
:10372000392002F0ADFF2C2002F0AAFF002002F0A9
:10373000A7FF342002F0A4FF022002F0A1FFF7202F
:1037400002F0AAFF202002F09BFFEA2002F0A4FF73
:10375000002002F095FF002002F092FFC02002F04E
:103760009BFF1B2002F08CFFC12002F095FF01207F
:1037700002F086FFC52002F08FFF302002F080FFAC
:10378000302002F07DFFC72002F086FFB72002F054
:1037900077FF362002F080FF482002F071FF3A20C8
:1037A00002F07AFF552002F06BFFB12002F074FFA7
:1037B000002002F065FF1A2002F062FFB62002F03E
:1037C0006BFF0A2002F05CFFA22002F059FFF220FA
:1037D00002F062FF002002F053FF262002F05CFF9F
:1037E000012002F04DFFE02002F056FF0F2002F012
:1037F00047FF2A2002F044FF282002F041FF082062
:1038000002F03EFF0E2002F03BFF082002F038FFDE
:10381000542002F035FFA92002F032FF432002F0CD
:103820002FFF0A2002F02CFF0F2002F029FF0020BA
:1038300002F026FF002002F023FF002002F020FF0C
:10384000002002F01DFFE12002F026FF002002F020
:1038500017FF152002F014FF172002F011FF0720B8
:1038600002F00EFF112002F00BFF062002F008FF0D
:103870002B2002F005FF562002F002FF3C2002F050
:10388000FFFE052002F0FCFE102002F0F9FE0F20E2
:1038900002F0F6FE3F2002F0F3FE3F2002F0F0FEC1
:1038A0000F2002F0EDFE2B2002F0F6FE002002F0C9
:1038B000E7FE002002F0E4FE012002F0E1FE3F20DE
:1038C00002F0DEFE2A2002F0E7FE002002F0D8FE21
:1038D000002002F0D5FE002002F0D2FEEF2002F020
:1038E000CFFE112002F0D8FE7820FFF703FC29203C
:1038F00002F0D2FE10BD10B5ED2002F0CDFE012089
:1039000002F0BEFEFE2002F0BBFEEE2002F0C4FE7E
:10391000DE2002F0B5FE212002F0B2FEF12002F01E
:10392000BBFE012002F0ACFEDF2002F0B5FE10204D
:1039300002F0A6FEC42002F0AFFE8F2002F0A0FE2F
:10394000C62002F0A9FE002002F09AFEE22002F05A
:1039500097FEE22002F094FEE22002F091FEBF20EA
:1039600002F09AFEAA2002F08BFEB02002F094FE34
:103970000D2002F085FE002002F082FE0D2002F0F4
:103980007FFE002002F07CFE112002F079FE002074
:1039900002F076FE192002F073FE002002F070FEA5
:1039A000212002F06DFE002002F06AFE2D2002F0C0
:1039B00067FE002002F064FE3D2002F061FE002060
:1039C00002F05EFE5D2002F05BFE002002F058FE79
:1039D0005D2002F055FE002002F052FEB12002F000
:1039E0005BFE802002F04CFE002002F049FE8B209E
:1039F00002F046FE002002F043FE962002F040FE58
:103A0000002002F03DFEB22002F046FE002002F04F
:103A100037FE002002F034FE022002F031FE0020CA
:103A200002F02EFE032002F02BFE002002F028FE02
:103A3000B32002F031FE002002F022FE002002F04E
:103A40001FFE002002F01CFE002002F019FE0020E4
:103A500002F016FE002002F013FE002002F010FE1D
:103A6000002002F00DFE002002F00AFE002002F00D
:103A700007FE002002F004FE002002F001FE0020FC
:103A800002F0FEFD002002F0FBFD002002F0F8FD38
:103A9000002002F0F5FD002002F0F2FD002002F00F
:103AA000EFFD002002F0ECFD002002F0E9FD002017
:103AB00002F0E6FD002002F0E3FD002002F0E0FD50
:103AC000002002F0DDFDB42002F0E6FD8B2002F0C4
:103AD000D7FD002002F0D4FD962002F0D1FD002099
:103AE00002F0CEFDA12002F0CBFD002002F0C8FDC7
:103AF000B52002F0D1FD022002F0C2FD002002F04C
:103B0000BFFD032002F0BCFD002002F0B9FD04203F
:103B100002F0B6FD002002F0B3FDB62002F0BCFDBD
:103B2000002002F0ADFD002002F0AAFDB72002F057
:103B3000B3FD002002F0A4FD002002F0A1FD3F2013
:103B400002F09EFD002002F09BFD5E2002F098FD39
:103B5000002002F095FD642002F092FD002002F0AA
:103B60008FFD8C2002F08CFD002002F089FDAC203E
:103B700002F086FD002002F083FDDC2002F080FDD3
:103B8000002002F07DFD702002F07AFD002002F09E
:103B900077FD902002F074FD002002F071FDEB2013
:103BA00002F06EFD002002F06BFDDC2002F068FDEB
:103BB000002002F065FDB82002F06EFD002002F04A
:103BC0005FFD002002F05CFD002002F059FD0020A6
:103BD00002F056FD002002F053FD002002F050FDDF
:103BE000002002F04DFD002002F04AFDBA2002F054
:103BF00053FD242002F044FD002002F041FD00208E
:103C000002F03EFD002002F03BFDC12002F044FD29
:103C1000202002F035FD002002F032FD542002F099
:103C20002FFD002002F02CFDFF2002F029FD0020D6
:103C300002F026FDC22002F02FFD0A2002F020FD36
:103C4000002002F01DFD042002F01AFD002002F009
:103C500017FDC32002F020FD3C2002F011FD0020E2
:103C600002F00EFD3A2002F00BFD002002F008FDEC
:103C7000392002F005FD002002F002FD372002F09D
:103C8000FFFC002002F0FCFC3C2002F0F9FC0020CC
:103C900002F0F6FC362002F0F3FC002002F0F0FC0B
:103CA000322002F0EDFC002002F0EAFC2F2002F0AE
:103CB000E7FC002002F0E4FC2C2002F0E1FC0020F4
:103CC00002F0DEFC292002F0DBFC002002F0D8FC30
:103CD000262002F0D5FC002002F0D2FC242002F0C5
:103CE000CFFC002002F0CCFC242002F0C9FC002014
:103CF00002F0C6FC232002F0C3FC002002F0C0FC4E
:103D00003C2002F0BDFC002002F0BAFC362002F09C
:103D1000B7FC002002F0B4FC322002F0B1FC00201D
:103D200002F0AEFC2F2002F0ABFC002002F0A8FC59
:103D30002C2002F0A5FC002002F0A2FC292002F0B9
:103D40009FFC002002F09CFC262002F099FC002041
:103D500002F096FC242002F093FC002002F090FC7C
:103D6000242002F08DFC002002F08AFC232002F0C7
:103D700087FC002002F084FCC42002F08DFC62204D
:103D800002F07EFC002002F07BFC052002F078FCB3
:103D9000002002F075FC842002F072FC002002F08A
:103DA0006FFCF02002F06CFC002002F069FC18208F
:103DB00002F066FC002002F063FCA42002F060FC2C
:103DC000002002F05DFC182002F05AFC002002F0F6
:103DD00057FC502002F054FC002002F051FC0C2053
:103DE00002F04EFC002002F04BFC172002F048FCD1
:103DF000002002F045FC952002F042FC002002F079
:103E00003FFCF32002F03CFC002002F039FCE620ED
:103E100002F036FC002002F033FCC52002F03CFC2E
:103E2000322002F02DFC002002F02AFC442002F097
:103E300027FC002002F024FC652002F021FC002079
:103E400002F01EFC762002F01BFC002002F018FCA1
:103E5000882002F015FC002002F012FCC62002F0BF
:103E60001BFC202002F00CFC002002F009FC1720B3
:103E700002F006FC002002F003FC012002F000FC2E
:103E8000002002F0FDFBC72002F006FC002002F03B
:103E9000F7FB002002F0F4FB002002F0F1FB002011
:103EA00002F0EEFBC82002F0F7FB002002F0E8FB76
:103EB000002002F0E5FB002002F0E2FB002002F00F
:103EC000DFFBC92002F0E8FB002002F0D9FB002054
:103ED00002F0D6FB002002F0D3FB002002F0D0FB62
:103EE000002002F0CDFB002002F0CAFB002002F00F
:103EF000C7FB002002F0C4FB002002F0C1FB002041
:103F000002F0BEFB002002F0BBFB002002F0B8FB79
:103F1000002002F0B5FB002002F0B2FB002002F00E
:103F2000AFFB002002F0ACFBE02002F0B5FB162056
:103F300002F0A6FB002002F0A3FB1C2002F0A0FB75
:103F4000002002F09DFB212002F09AFB002002F0ED
:103F500097FB362002F094FB002002F091FB4620F4
:103F600002F08EFB002002F08BFB522002F088FB57
:103F7000002002F085FB642002F082FB002002F0AA
:103F80007FFB7A2002F07CFB002002F079FB8B2083
:103F900002F076FB002002F073FB992002F070FB28
:103FA000002002F06DFBA82002F06AFB002002F066
:103FB00067FBB92002F064FB002002F061FBC42023
:103FC00002F05EFB002002F05BFBCA2002F058FB0F
:103FD000002002F055FBD22002F052FB002002F03C
:103FE0004FFBD92002F04CFB002002F049FBE020FF
:103FF00002F046FB002002F043FBF32002F040FBFE
:10400000002002F03DFBE12002F046FB162002F00A
:1040100037FB002002F034FB1C2002F031FB0020B3
:1040200002F02EFB222002F02BFB002002F028FBE6
:10403000362002F025FB002002F022FB452002F092
:104040001FFB002002F01CFB522002F019FB002095
:1040500002F016FB642002F013FB002002F010FBBC
:104060007A2002F00DFB002002F00AFB8B2002F008
:1040700007FB002002F004FB992002F001FB002066
:1040800002F0FEFAA82002F0FBFA002002F0F8FA93
:10409000B92002F0F5FA002002F0F2FAC42002F092
:1040A000EFFA002002F0ECFACA2002F0E9FA002050
:1040B00002F0E6FAD22002F0E3FA002002F0E0FA81
:1040C000D82002F0DDFA002002F0DAFAE02002F057
:1040D000D7FA002002F0D4FAF32002F0D1FA00203F
:1040E00002F0CEFAE22002F0D7FA052002F0C8FA78
:1040F000002002F0C5FA0B2002F0C2FA002002F004
:10410000BFFA1B2002F0BCFA002002F0B9FA3420FA
:1041100002F0B6FA002002F0B3FA442002F0B0FA3E
:10412000002002F0ADFA4F2002F0AAFA002002F0BF
:10413000A7FA612002F0A4FA002002F0A1FA792087
:1041400002F09EFA002002F09BFA882002F098FA12
:10415000002002F095FA972002F092FA002002F077
:104160008FFAA62002F08CFA002002F089FAB7201C
:1041700002F086FA002002F083FAC22002F080FAF0
:10418000002002F07DFAC72002F07AFA002002F047
:1041900077FAD12002F074FA002002F071FAD620EA
:1041A00002F06EFA002002F06BFADD2002F068FAED
:1041B000002002F065FAF32002F062FA002002F01B
:1041C0005FFAE32002F068FA052002F059FA0020B5
:1041D00002F056FA0A2002F053FA002002F050FAD8
:1041E0001C2002F04DFA002002F04AFA332002F0BF
:1041F00047FA002002F044FA442002F041FA00207D
:1042000002F03EFA502002F03BFA002002F038FAA9
:10421000622002F035FA002002F032FA782002F033
:104220002FFA002002F02CFA882002F029FA002050
:1042300002F026FA972002F023FA002002F020FA7A
:10424000A62002F01DFA002002F01AFAB72002F0B0
:1042500017FA002002F014FAC22002F011FA00202E
:1042600002F00EFAC72002F00BFA002002F008FA62
:10427000D12002F005FA002002F002FAD52002F067
:10428000FFF9002002F0FCF9DD2002F0F9F900202E
:1042900002F0F6F9F32002F0F3F9002002F0F0F951
:1042A000E42002F0F9F9012002F0EAF9002002F01E
:1042B000E7F9012002F0E4F9002002F0E1F9022020
:1042C00002F0DEF9002002F0DBF92A2002F0D8F932
:1042D000002002F0D5F93C2002F0D2F9002002F0D3
:1042E000CFF94B2002F0CCF9002002F0C9F95D2093
:1042F00002F0C6F9002002F0C3F9742002F0C0F900
:10430000002002F0BDF9842002F0BAF9002002F08A
:10431000B7F9932002F0B4F9002002F0B1F9A2201D
:1043200002F0AEF9002002F0ABF9B32002F0A8F9D8
:10433000002002F0A5F9BE2002F0A2F9002002F050
:104340009FF9C42002F09CF9002002F099F9CD20D9
:1043500002F096F9002002F093F9D32002F090F9D0
:10436000002002F08DF9DD2002F08AF9002002F031
:1043700087F9F32002F084F9002002F081F9E520AA
:1043800002F08AF9002002F07BF9002002F078F9AF
:10439000002002F075F9002002F072F9022002F00C
:1043A0006FF9002002F06CF9292002F069F9002071
:1043B00002F066F93C2002F063F9002002F060F997
:1043C0004B2002F05DF9002002F05AF95D2002F066
:1043D00057F9002002F054F9742002F051F900203E
:1043E00002F04EF9842002F04BF9002002F048F967
:1043F000932002F045F9002002F042F9A22002F0D9
:104400003FF9002002F03CF9B32002F039F9002016
:1044100002F036F9BE2002F033F9002002F030F944
:10442000C42002F02DF9002002F02AF9CD2002F07C
:1044300027F9002002F024F9D32002F021F900200E
:1044400002F01EF9DC2002F01BF9002002F018F93E
:10445000F32002F015F9002002F012F9E62002F034
:104460001BF9112002F00CF9002002F009F93420A8
:1044700002F006F9002002F003F9562002F000F9DC
:10448000002002F0FDF8762002F0FAF8002002F099
:10449000F7F8772002F0F4F8002002F0F1F8662037
:1044A00002F0EEF8002002F0EBF8882002F0E8F8C5
:1044B000002002F0E5F8992002F0E2F8002002F076
:1044C000DFF8BB2002F0DCF8002002F0D9F89920D8
:1044D00002F0D6F8002002F0D3F8662002F0D0F8FF
:1044E000002002F0CDF8552002F0CAF8002002F0BA
:1044F000C7F8552002F0C4F8002002F0C1F84520AA
:1045000002F0BEF8002002F0BBF8432002F0B8F839
:10451000002002F0B5F8442002F0B2F8002002F0CA
:10452000AFF8E72002F0B8F8322002F0A9F8002036
:1045300002F0A6F8552002F0A3F8002002F0A0F83F
:10454000762002F09DF8002002F09AF8662002F032
:1045500097F8002002F094F8672002F091F800200C
:1045600002F08EF8672002F08BF8002002F088F845
:10457000872002F085F8002002F082F8992002F0EE
:104580007FF8002002F07CF8BB2002F079F80020D0
:1045900002F076F8992002F073F8002002F070F82B
:1045A000772002F06DF8002002F06AF8442002F053
:1045B00067F8002002F064F8562002F061F800204D
:1045C00002F05EF8232002F05BF8002002F058F8B9
:1045D000332002F055F8002002F052F8452002F096
:1045E0004FF8002002F04CF8E82002F055F80020C7
:1045F00002F046F8002002F043F8992002F040F85B
:10460000002002F03DF8872002F03AF8002002F086
:1046100037F8882002F034F8002002F031F87720D3
:1046200002F02EF8002002F02BF8662002F028F8A5
:10463000002002F025F8882002F022F8002002F085
:104640001FF8AA2002F01CF8002002F019F8BB2085
:1046500002F016F8002002F013F8992002F010F88A
:10466000002002F00DF8662002F00AF8002002F0A7
:1046700007F8552002F004F8002002F001F8552058
:1046800001F0FEFF002001F0FBFF442001F0F8FFE5
:10469000002001F0F5FF442001F0F2FF002001F0BE
:1046A000EFFF552001F0ECFF002001F0E9FFE920C9
:1046B00001F0F2FFAA2001F0E3FF002001F0E0FF8B
:1046C000002001F0DDFF002001F0DAFF002001F002
:1046D000E3FFAA2001F0D4FFCF2001F0DDFF00208E
:1046E00001F0CEFF002001F0CBFF002001F0C8FF59
:1046F000002001F0C5FF002001F0C2FF002001F002
:10470000BFFF002001F0BCFF002001F0B9FF002036
:1047100001F0B6FF002001F0B3FF002001F0B0FF70
:10472000002001F0ADFF002001F0AAFF002001F001
:10473000A7FF002001F0A4FF002001F0A1FF00204E
:1047400001F09EFFF02001F0A7FF002001F098FF8C
:10475000502001F095FF002001F092FF002001F0B1
:104760008FFF002001F08CFFF32001F095FF002067
:1047700001F086FFF92001F08FFF062001F080FF95
:10478000102001F07DFF292001F07AFF002001F0C8
:1047900077FF3A2001F080FF552001F071FF1120D2
:1047A00001F07AFF6420FEF7A5FC292001F074FFD8
:1047B000352001F071FF002001F062FF512001F06F
:1047C0006BFFFF2001F05CFF532001F065FF2C2000
:1047D00001F056FF552001F05FFF822001F050FFED
:1047E0002C2001F059FF10BD10B555214FF4704039
:1047F00001F068FFAA214FF2010001F063FF52218E
:104800004FF2020001F05EFF08214FF2030001F0B9
:1048100059FF01214FF2040001F054FF0D214FF424
:10482000304001F04FFF0D214BF2010001F04AFF33
:104830000D214BF2020001F045FF34214FF43640C8
:1048400001F040FF34214BF2016001F03BFF3421C5
:104850004BF2026001F036FF0D214FF4314001F0C0
:1048600031FF0D214BF2011001F02CFF0D214BF215
:10487000021001F027FF34214FF4374001F022FFEE
:1048800034214BF2017001F01DFF34214BF2027014
:1048900001F018FF00214FF4324001F013FF002116
:1048A0004BF2012001F00EFF00214BF2022001F03B
:1048B00009FF24214FF4384001F004FF24214BF676
:1048C000010001F0FFFE24214BF6020001F0FAFE88
:1048D00001214FF43F4001F0F5FE0F214FF433402A
:1048E00001F0F0FE0F214BF2013001F0EBFE0F2141
:1048F0004BF2023001F0E6FE34214FF4394001F072
:10490000E1FE34214BF6011001F0DCFE34214BF6C0
:10491000021001F0D7FE08214FF4354001F0D2FE1D
:1049200008214BF2015001F0CDFE08214BF202505C
:1049300001F0C8FE03214FF4424001F0C3FE2421E0
:104940004FF43A4001F0BEFE24214BF6012001F065
:10495000B9FE24214BF6022001F0B4FE00214FF4F1
:104960003C4001F0AFFE78214BF6014001F0AAFE79
:1049700000214BF6024001F0A5FE00214FF43D401E
:1049800001F0A0FE78214BF6015001F09BFE0021C2
:104990004BF6025001F096FE00214FF43E4001F02C
:1049A00091FE64214BF6016001F08CFE00214FF472
:1049B000514001F087FE33214DF2011001F082FEDB
:1049C00000214DF2021001F07DFE34214DF2031062
:1049D00001F078FE00214DF2041001F073FE3A213F
:1049E0004DF2051001F06EFE00214DF2061001F0AF
:1049F00069FE4A214DF2071001F064FE00214DF2DC
:104A0000081001F05FFE5C214DF2091001F05AFE22
:104A100000214DF20A1001F055FE81214DF20B10DC
:104A200001F050FE00214DF20C1001F04BFEA621CA
:104A30004DF20D1001F046FE00214DF20E1001F076
:104A400041FEE5214DF20F1001F03CFE01214DF237
:104A5000101001F037FE13214DF2111001F032FE5B
:104A600001214DF2121001F02DFE54214DF21310D0
:104A700001F028FE01214DF2141001F023FE8221E5
:104A80004DF2151001F01EFE01214DF2161001F03D
:104A900019FECA214DF2171001F014FE02214DF249
:104AA000181001F00FFE00214DF2191001F00AFE5E
:104AB00002214DF21A1001F005FE01214DF21B10EA
:104AC00001F000FE02214DF21C1001F0FBFD34212B
:104AD0004DF21D1001F0F6FD02214DF21E1001F005
:104AE000F1FD67214DF21F1001F0ECFD02214DF2A6
:104AF000201001F0E7FD84214DF2211001F0E2FDCC
:104B000002214DF2221001F0DDFDA4214DF223100F
:104B100001F0D8FD02214DF2241001F0D3FDB721A0
:104B20004DF2251001F0CEFD02214DF2261001F0CC
:104B3000C9FDCF214DF2271001F0C4FD02214DF235
:104B4000281001F0BFFDDE214DF2291001F0BAFD61
:104B500002214DF22A1001F0B5FDF2214DF22B1089
:104B600001F0B0FD02214DF22C1001F0ABFDFE2151
:104B70004DF22D1001F0A6FD03214DF22E1001F093
:104B8000A1FD10214DF22F1001F09CFD03214DF2EB
:104B9000301001F097FD33214DF2311001F092FDFC
:104BA00003214DF2321001F08DFD6D214DF23310D5
:104BB00001F088FD00214FF4524001F083FD3321C4
:104BC0004DF2012001F07EFD00214DF2022001F0A6
:104BD00079FD34214DF2032001F074FD00214DF2E6
:104BE000042001F06FFD3A214DF2052001F06AFD2D
:104BF00000214DF2062001F065FD4A214DF207200B
:104C000001F060FD00214DF2082001F05BFD5C2108
:104C10004DF2092001F056FD00214DF20A2001F06D
:104C200051FD81214DF20B2001F04CFD00214DF290
:104C30000C2001F047FDA6214DF20D2001F042FDB0
:104C400000214DF20E2001F03DFDE5214DF20F2037
:104C500001F038FD01214DF2102001F033FD132148
:104C60004DF2112001F02EFD01214DF2122001F034
:104C700029FD54214DF2132001F024FD01214DF2B4
:104C8000142001F01FFD82214DF2152001F01AFDC4
:104C900001214DF2162001F015FDCA214DF2172019
:104CA00001F010FD02214DF2182001F00BFD002152
:104CB0004DF2192001F006FD02214DF21A2001F0FB
:104CC00001FD01214DF21B2001F0FCFC02214DF2FF
:104CD0001C2001F0F7FC34214DF21D2001F0F2FC04
:104CE00002214DF21E2001F0EDFC67214DF21F2044
:104CF00001F0E8FC02214DF2202001F0E3FC8421C8
:104D00004DF2212001F0DEFC02214DF2222001F0C3
:104D1000D9FCA4214DF2232001F0D4FC02214DF254
:104D2000242001F0CFFCB7214DF2252001F0CAFC70
:104D300002214DF2262001F0C5FCCF214DF22720A3
:104D400001F0C0FC02214DF2282001F0BBFCDE2165
:104D50004DF2292001F0B6FC02214DF22A2001F08B
:104D6000B1FCF2214DF22B2001F0ACFC02214DF2FE
:104D70002C2001F0A7FCFE214DF22D2001F0A2FC19
:104D800003214DF22E2001F09DFC10214DF22F2029
:104D900001F098FC03214DF2302001F093FC332107
:104DA0004DF2312001F08EFC03214DF2322001F052
:104DB00089FC6D214DF2332001F084FC00214FF479
:104DC000534001F07FFC33214DF2013001F07AFCB9
:104DD00000214DF2023001F075FC34214DF2033018
:104DE00001F070FC00214DF2043001F06BFC3A211F
:104DF0004DF2053001F066FC00214DF2063001F065
:104E000061FC4A214DF2073001F05CFC00214DF2BB
:104E1000083001F057FC5C214DF2093001F052FCE2
:104E200000214DF20A3001F04DFC81214DF20B3092
:104E300001F048FC00214DF20C3001F043FCA621AA
:104E40004DF20D3001F03EFC00214DF20E3001F02C
:104E500039FCE5214DF20F3001F034FC01214DF217
:104E6000103001F02FFC13214DF2113001F02AFC1B
:104E700001214DF2123001F025FC54214DF2133086
:104E800001F020FC01214DF2143001F01BFC8221C5
:104E90004DF2153001F016FC01214DF2163001F0F3
:104EA00011FCCA214DF2173001F00CFC02214DF229
:104EB000183001F007FC00214DF2193001F002FC1E
:104EC00002214DF21A3001F0FDFB01214DF21B30A1
:104ED00001F0F8FB02214DF21C3001F0F3FB34210C
:104EE0004DF21D3001F0EEFB02214DF21E3001F0BB
:104EF000E9FB67214DF21F3001F0E4FB02214DF286
:104F0000203001F0DFFB84214DF2213001F0DAFB8B
:104F100002214DF2223001F0D5FBA4214DF22330C5
:104F200001F0D0FB02214DF2243001F0CBFBB72180
:104F30004DF2253001F0C6FB02214DF2263001F082
:104F4000C1FBCF214DF2273001F0BCFB02214DF215
:104F5000283001F0B7FBDE214DF2293001F0B2FB21
:104F600002214DF22A3001F0ADFBF2214DF22B303F
:104F700001F0A8FB02214DF22C3001F0A3FBFE2131
:104F80004DF22D3001F09EFB03214DF22E3001F049
:104F900099FB10214DF22F3001F094FB03214DF2CB
:104FA000303001F08FFB33214DF2313001F08AFBBC
:104FB00003214DF2323001F085FB6D214DF233308B
:104FC00001F080FB00214FF4544001F07BFB3321C2
:104FD0004DF2014001F076FB00214DF2024001F05C
:104FE00071FB34214DF2034001F06CFB00214DF2C6
:104FF000044001F067FB3A214DF2054001F062FBED
:1050000000214DF2064001F05DFB4A214DF20740C0
:1050100001F058FB00214DF2084001F053FB5C21E8
:105020004DF2094001F04EFB00214DF20A4001F023
:1050300049FB81214DF20B4001F044FB00214DF270
:105040000C4001F03FFBA6214DF20D4001F03AFB70
:1050500000214DF20E4001F035FBE5214DF20F40ED
:1050600001F030FB01214DF2104001F02BFB132128
:105070004DF2114001F026FB01214DF2124001F0EA
:1050800021FB54214DF2134001F01CFB01214DF294
:10509000144001F017FB82214DF2154001F012FB84
:1050A00001214DF2164001F00DFBCA214DF21740CF
:1050B00001F008FB02214DF2184001F003FB002132
:1050C0004DF2194001F0FEFA02214DF21A4001F0B2
:1050D000F9FA01214DF21B4001F0F4FA02214DF2E0
:1050E0001C4001F0EFFA34214DF21D4001F0EAFAC4
:1050F00002214DF21E4001F0E5FA67214DF21F40FA
:1051000001F0E0FA02214DF2204001F0DBFA8421A7
:105110004DF2214001F0D6FA02214DF2224001F079
:10512000D1FAA4214DF2234001F0CCFA02214DF234
:10513000244001F0C7FAB7214DF2254001F0C2FA30
:1051400002214DF2264001F0BDFACF214DF2274059
:1051500001F0B8FA02214DF2284001F0B3FADE2145
:105160004DF2294001F0AEFA02214DF22A4001F041
:10517000A9FAF2214DF22B4001F0A4FA02214DF2DE
:105180002C4001F09FFAFE214DF22D4001F09AFAD9
:1051900003214DF22E4001F095FA10214DF22F40DF
:1051A00001F090FA03214DF2304001F08BFA3321E7
:1051B0004DF2314001F086FA03214DF2324001F008
:1051C00081FA6D214DF2334001F07CFA00214FF459
:1051D000554001F077FA33214DF2015001F072FA97
:1051E00000214DF2025001F06DFA34214DF20350CE
:1051F00001F068FA00214DF2045001F063FA3A21FF
:105200004DF2055001F05EFA00214DF2065001F01A
:1052100059FA4A214DF2075001F054FA00214DF29B
:10522000085001F04FFA5C214DF2095001F04AFAA2
:1052300000214DF20A5001F045FA81214DF20B5048
:1052400001F040FA00214DF20C5001F03BFAA6218A
:105250004DF20D5001F036FA00214DF20E5001F0E2
:1052600031FAE5214DF20F5001F02CFA01214DF2F7
:10527000105001F027FA13214DF2115001F022FADB
:1052800001214DF2125001F01DFA54214DF213503C
:1052900001F018FA01214DF2145001F013FA8221A5
:1052A0004DF2155001F00EFA01214DF2165001F0A9
:1052B00009FACA214DF2175001F004FA02214DF209
:1052C000185001F0FFF900214DF2195001F0FAF9E0
:1052D00002214DF21A5001F0F5F901214DF21B5057
:1052E00001F0F0F902214DF21C5001F0EBF93421EC
:1052F0004DF21D5001F0E6F902214DF21E5001F071
:10530000E1F967214DF21F5001F0DCF902214DF265
:10531000205001F0D7F984214DF2215001F0D2F94B
:1053200002214DF2225001F0CDF9A4214DF223507B
:1053300001F0C8F902214DF2245001F0C3F9B72160
:105340004DF2255001F0BEF902214DF2265001F038
:10535000B9F9CF214DF2275001F0B4F902214DF2F5
:10536000285001F0AFF9DE214DF2295001F0AAF9E1
:1053700002214DF22A5001F0A5F9F2214DF22B50F5
:1053800001F0A0F902214DF22C5001F09BF9FE2111
:105390004DF22D5001F096F903214DF22E5001F0FF
:1053A00091F910214DF22F5001F08CF903214DF2AB
:1053B000305001F087F933214DF2315001F082F97C
:1053C00003214DF2325001F07DF96D214DF2335041
:1053D00001F078F900214FF4564001F073F93321C0
:1053E0004DF2016001F06EF900214DF2026001F012
:1053F00069F934214DF2036001F064F900214DF2A6
:10540000046001F05FF93A214DF2056001F05AF9AC
:1054100000214DF2066001F055F94A214DF2076076
:1054200001F050F900214DF2086001F04BF95C21C8
:105430004DF2096001F046F900214DF20A6001F0D9
:1054400041F981214DF20B6001F03CF900214DF250
:105450000C6001F037F9A6214DF20D6001F032F930
:1054600000214DF20E6001F02DF9E5214DF20F60A3
:1054700001F028F901214DF2106001F023F9132108
:105480004DF2116001F01EF901214DF2126001F0A0
:1054900019F954214DF2136001F014F901214DF274
:1054A000146001F00FF982214DF2156001F00AF944
:1054B00001214DF2166001F005F9CA214DF2176085
:1054C00001F000F902214DF2186001F0FBF8002113
:1054D0004DF2196001F0F6F802214DF21A6001F068
:1054E000F1F801214DF21B6001F0ECF802214DF2C0
:1054F0001C6001F0E7F834214DF21D6001F0E2F884
:1055000002214DF21E6001F0DDF867214DF21F60AF
:1055100001F0D8F802214DF2206001F0D3F8842187
:105520004DF2216001F0CEF802214DF2226001F02F
:10553000C9F8A4214DF2236001F0C4F802214DF214
:10554000246001F0BFF8B7214DF2256001F0BAF8F0
:1055500002214DF2266001F0B5F8CF214DF227600F
:1055600001F0B0F802214DF2286001F0ABF8DE2125
:105570004DF2296001F0A6F802214DF22A6001F0F7
:10558000A1F8F2214DF22B6001F09CF802214DF2BE
:105590002C6001F097F8FE214DF22D6001F092F899
:1055A00003214DF22E6001F08DF810214DF22F6095
:1055B00001F088F803214DF2306001F083F83321C7
:1055C0004DF2316001F07EF803214DF2326001F0BE
:1055D00079F86D214DF2336001F074F855214FF4E4
:1055E000704001F06FF8AA214FF2010001F06AF853
:1055F00052214FF2020001F065F808214FF203003A
:1056000001F060F800214FF2040001F05BF8CC21BA
:105610004FF4314001F056F800214BF2011001F037
:1056200051F805214FF4364001F04CF870214FF449
:10563000374001F047F870214BF2017001F042F859
:1056400001214FF4384001F03DF803214BF60100F1
:1056500001F038F803214BF6020001F033F8032182
:105660004BF6030001F02EF802214FF43C4001F00C
:1056700029F800214BF6014001F024F800214BF6F7
:10568000024001F01FF8D0214FF4494001F01AF810
:1056900002214CF6011001F015F850214CF60210D1
:1056A00001F010F850214CF6031001F00BF85021D6
:1056B0004CF6041001F006F800214FF4545001F0AC
:1056C00001F855214FF4685000F0FCFF4FF488506A
:1056D00000F0E2FF7820FDF727FD4FF4245000F0A2
:1056E000DBFF10BD10B5E22000F0D6FF1D2000F05A
:1056F000C7FF022000F0C4FF042000F0C1FF6420B7
:10570000FDF712FDE02000F0C7FF012000F0B8FF18
:105710000A20FDF7EFFCE02000F0BEFF032000F0C0
:10572000AFFF0C20FDF7E6FC012000F0B5FF0A20DA
:10573000FDF7E0FCE62000F0AFFF2F2000F0A0FF17
:10574000FF2000F09DFFFF2000F09AFFB02000F046
:10575000A3FF202000F094FF002000F091FF032021
:1057600000F08EFF40F21F3000F08AFF012000F0B1
:1057700087FF40F2DF1000F083FF002000F080FF81
:10578000B42000F089FF042000F07AFF40F21F40AF
:1057900000F076FF002000F073FF2E2000F070FF75
:1057A000002000F06DFF002000F06AFF002000F0F4
:1057B00067FF002000F064FFB62000F06DFF0220BC
:1057C00000F05EFF4FF4037000F05AFF002000F07D
:1057D00057FF172000F054FF152000F051FF002064
:1057E00000F04EFF002000F04BFFF02000F054FFCF
:1057F000032000F045FF292000F04EFFD02000F0EC
:105800004BFF002000F03CFFBE2000F045FF0520CC
:1058100000F036FFFE2000F033FF012000F030FFE3
:10582000002000F02DFF002000F02AFF002000F0F3
:1058300027FFB82000F030FF032000F021FF0120F7
:1058400000F01EFFBA2000F027FF012000F018FF33
:1058500010BD10B5112000F01FFF7820FDF74AFCA5
:10586000362000F019FF002000F00AFF3A2000F077
:1058700013FF052000F004FFB22000F00DFF0C2004
:1058800000F0FEFE0C2000F0FBFE002000F0F8FE11
:10589000332000F0F5FE332000F0F2FEB72000F0D8
:1058A000FBFE352000F0ECFEBB2000F0F5FE3220C0
:1058B00000F0E6FEC02000F0EFFE0C2000F0E0FE5D
:1058C000C22000F0E9FE012000F0DAFEC32000F063
:1058D000E3FE102000F0D4FEC42000F0DDFE202006
:1058E00000F0CEFEC62000F0D7FE0F2000F0C8FE6C
:1058F000D02000F0D1FEA42000F0C2FEA12000F0D4
:10590000BFFEE02000F0C8FED02000F0B9FE00206D
:1059100000F0B6FE022000F0B3FE072000F0B0FE5B
:105920000A2000F0ADFE282000F0AAFE322000F090
:10593000A7FE442000F0A4FE422000F0A1FE0620B5
:1059400000F09EFE0E2000F09BFE122000F098FE5C
:10595000142000F095FE172000F092FEE12000F0E8
:105960009BFED02000F08CFE002000F089FE02207B
:1059700000F086FE072000F083FE0A2000F080FE83
:10598000282000F07DFE312000F07AFE542000F047
:1059900077FE472000F074FE0E2000F071FE1C2000
:1059A00000F06EFE172000F06BFE1B2000F068FE7A
:1059B0001E2000F065FE2A2000F06EFE002000F0A0
:1059C0005FFE002000F05CFE002000F059FEEF209A
:1059D00000F056FE2B2000F05FFE002000F050FE8D
:1059E000002000F04DFE012000F04AFE3F2000F0B4
:1059F00047FE292000F050FE10BD00002DE9F84FB1
:105A000005460E4617469846DDF828904FF0000BE5
:105A10001448006840B143463A4631462846CDF81E
:105A2000009000F005FF1BE0781B401C1FFA80FB74
:105A3000344613E02146284600F0DEFB00F038FE35
:105A40004FF0000A06E00849A1F800900AF10100B1
:105A50001FFA80FADA45F6DB601C84B24445E9DDC2
:105A6000BDE8F88FB40400200000086000B595B0D0
:105A700001F064F9FE4988800846808810B100F082
:105A800089FFC7E100BF00BF00200190F94800680E
:105A900040F00800F74908600846006800F0080078
:105AA000019000BF00BF00BF00BF00BF00200190F9
:105AB0000846006840F0080008600846006800F0EA
:105AC0000800019000BF00BF00BF00BF00BF002062
:105AD00001900846006840F0080008600846006829
